:100000000C942A000C9447000C9447000C94470071
:100010000C9447000C9447000C9447000C94470044
:100020000C9447000C9447000C9447000C94470034
:100030000C9447000C9428110C9447000C94470032
:100040000C9447000C9447000C9447000C94470014
:100050000C94470011241FBECFE5D8E0DEBFCDBF12
:1000600010E0A0E6B0E0EAE0F5E202C005900D92F3
:10007000AE38B107D9F710E0AEE8B0E001C01D928C
:10008000A639B107E1F70E94C8110C9483120C94B1
:100090000000EF92FF920F931F937B018C0120E0F1
:1000A00030E040E05FE40E94490388238CF0C801FF
:1000B000B70120E030E040E05FE40E94C1010E940F
:1000C000A9039B01AC01205030404040504806C07D
:1000D000C801B7010E94A9039B01AC01B901CA0183
:1000E0001F910F91FF90EF900895A0E0B0E0EBE733
:1000F000F0E00C944C12DC012B01FA019C9192303F
:1001000008F439C1EB018881823008F433C194309E
:1001100069F4843009F02FC111969C91119789815F
:10012000981709F428C1A4E8B0E025C1843009F487
:1001300021C18230A9F4923009F01DC19A01AD01AC
:1001400088E0EA010990AE01E90109929E0181501F
:10015000C1F7E201898111969C918923818308C1AD
:10016000923009F407C112962D903C901397EB0141
:100170008A819B811496AD90BD90CD90DC901797AD
:10018000EC80FD800E811F819101281B390BB90184
:1001900037FF04C066277727621B730B6032710537
:1001A0000CF061C0121613066CF537014801062EDB
:1001B00004C096948794779467940A94D2F721E0C8
:1001C00030E040E050E004C0220F331F441F551FB1
:1001D0006A95D2F721503040404050402E213F21B7
:1001E00040235123211531054105510521F021E01E
:1001F00030E040E050E079018A01E628F72808293C
:1002000019293CC0232BD1F1260E371E350146019A
:10021000062E04C096948794779467940A94D2F734
:1002200021E030E040E050E004C0220F331F441FC3
:10023000551F6A95D2F721503040404050402A2146
:100240003B214C215D21211531054105510521F04E
:1002500021E030E040E050E059016A01A628B728CB
:10026000C828D9280BC0821593052CF01C01AA249C
:10027000BB24650103C0EE24FF24870111969C91E5
:10028000D20111968C91981709F445C0992339F041
:10029000A80197012A193B094C095D0906C0A6016E
:1002A00095012E193F09400B510B57FD08C01182D3
:1002B0003382228224833583468357831DC081E0A5
:1002C00081833382228288279927DC01821B930B4A
:1002D000A40BB50B84839583A683B7830DC0220F2F
:1002E000331F441F551F24833583468357838281E0
:1002F000938101979383828324813581468157813D
:10030000DA01C9010197A109B1098F5F9F4FAF4F72
:10031000BF4328F30BC0918333822282EA0CFB1C7B
:100320000C1D1D1DE482F5820683178383E0808304
:10033000248135814681578157FF1AC0C901AA27F8
:1003400097FDA095BA2F81709070A070B0705695EF
:10035000479537952795822B932BA42BB52B848318
:100360009583A683B7838281938101969383828349
:10037000DF0101C0D201CD01CDB7DEB7E2E10C94BF
:100380006812A0E2B0E0E7ECF1E00C945812698347
:100390007A838B839C832D833E834F835887E9E048
:1003A000EE2EF12CEC0EFD1ECE010196B7010E943F
:1003B000D2048E010F5E1F4FCE010596B8010E9438
:1003C000D2048A8991E089278A8BC701B801AE01DE
:1003D000475E5F4F0E9475000E94FD03A096E6E015
:1003E0000C947412A0E2B0E0E8EFF1E00C94581223
:1003F00069837A838B839C832D833E834F835887C5
:10040000F9E0EF2EF12CEC0EFD1ECE010196B701A6
:100410000E94D2048E010F5E1F4FCE010596B801D7
:100420000E94D204C701B801AE01475E5F4F0E942F
:1004300075000E94FD03A096E6E00C947412A0E201
:10044000B0E0E5E2F2E00C944C1269837A838B838E
:100450009C832D833E834F835887CE010196BE0136
:10046000675F7F4F0E94D204CE010596BE016F5E8A
:100470007F4F0E94D2049985923088F0898982301A
:10048000C8F0943019F4823051F404C0843029F457
:10049000923081F484E890E0C6C0923049F420E0C4
:1004A0009A858A89981321E02A87CE010996BBC0D4
:1004B000823049F420E09A858A89981321E02A8BBA
:1004C000CE014196B0C02D843E844F8458886D88FB
:1004D0007E888F88988CEE24FF248701AA24BB2471
:1004E000650140E050E060E070E0E0E0F0E0C10174
:1004F00081709070892BE9F0E60CF71C081D191D1E
:100500009A01AB012A0D3B1D4C1D5D1D80E090E062
:10051000A0E0B0E0E614F7040805190520F481E036
:1005200090E0A0E0B0E0BA01A901480F591F6A1F8E
:100530007B1FAA0CBB1CCC1CDD1C97FE08C081E0F5
:1005400090E0A0E0B0E0A82AB92ACA2ADB2A3196B6
:10055000E032F10549F0660C771C881C991C569412
:10056000479437942794C3CFFA85EA892B893C892D
:100570008B859C85280F391F2E5F3F4F17C0CA01FE
:1005800081709070892B61F016950795F794E79428
:1005900080E090E0A0E0B0E8E82AF92A0A2B1B2BC3
:1005A00076956795579547952F5F3F4F77FDE7CF36
:1005B0000CC0440F551F661F771F17FD4160EE0CDE
:1005C000FF1C001F111F21503040403090E05907A0
:1005D00090E0690790E4790760F32B8F3C8FDB0193
:1005E000CA018F779070A070B07080349105A1051A
:1005F000B10561F447FD0AC0E114F10401051105DC
:1006000029F0405C5F4F6F4F7F4F40781A8EFE1786
:1006100011F081E08A8F4D8F5E8F6F8F78A383E01A
:10062000898FCE0149960E94FD03A096E2E10C94C9
:100630006812A8E1B0E0EFE1F3E00C94581269838E
:100640007A838B839C832D833E834F83588789E0F5
:10065000E82EF12CEC0EFD1ECE010196B7010E9492
:10066000D2048E010F5E1F4FCE010596B8010E9485
:10067000D2048985823040F08989823028F0C70110
:10068000B8010E944A0501C08FEF6896E6E00C941D
:100690007412A8E1B0E0EFE4F3E00C94581269831F
:1006A0007A838B839C832D833E834F83588789E095
:1006B000E82EF12CEC0EFD1ECE010196B7010E9432
:1006C000D2048E010F5E1F4FCE010596B8010E9425
:1006D000D2048985823040F08989823028F0C701B0
:1006E000B8010E944A0501C08FEF6896E6E00C94BD
:1006F0007412A8E1B0E0EFE7F3E00C9458126983BC
:100700007A838B839C832D833E834F83588789E034
:10071000E82EF12CEC0EFD1ECE010196B7010E94D1
:10072000D2048E010F5E1F4FCE010596B8010E94C4
:10073000D2048985823040F08989823028F0C7014F
:10074000B8010E944A0501C081E06896E6E00C9479
:100750007412ACE0B0E0EFEAF3E00C945C12698351
:100760007A838B839C83CE010196BE016B5F7F4FA2
:100770000E94D2048D81823061F1823050F1843048
:1007800021F48E81882351F12EC02F81388537FDC9
:1007900020C06E812F3131051CF06623F9F023C093
:1007A0008EE190E0821B930B29853A854B855C8511
:1007B00004C056954795379527958A95D2F76623B5
:1007C000B1F050954095309521953F4F4F4F5F4F79
:1007D0000EC020E030E040E050E009C02FEF3FEFD6
:1007E0004FEF5FE704C020E030E040E050E8B9019F
:1007F000CA012C96E2E00C947812DF92EF92FF92FD
:100800000F931F93FC01E480F58006811781D1804E
:100810008081823048F480E090E0A0E1B0E0E82AF6
:10082000F92A0A2B1B2BA5C0843009F49FC0823003
:1008300021F4EE24FF24870105C0E114F104010531
:10084000110519F4E0E0F0E096C0628173819FEF3A
:10085000623879070CF05BC022E83FEF261B370BAC
:100860002A3131052CF020E030E040E050E02AC091
:10087000B801A701022E04C0769567955795479554
:100880000A94D2F781E090E0A0E0B0E004C0880FC5
:10089000991FAA1FBB1F2A95D2F70197A109B10979
:1008A0008E219F21A023B1230097A105B10521F03E
:1008B00081E090E0A0E0B0E09A01AB01282B392B59
:1008C0004A2B5B2BDA01C9018F779070A070B07052
:1008D00080349105A105B10539F427FF09C0205CDA
:1008E0003F4F4F4F5F4F04C0215C3F4F4F4F5F4F13
:1008F000E0E0F0E02030A0E03A07A0E04A07A0E402
:100900005A0710F0E1E0F0E079018A0127C0603871
:10091000710564F5FB01E158FF4FD801C7018F77DE
:100920009070A070B07080349105A105B10539F4C4
:10093000E7FE0DC080E490E0A0E0B0E004C08FE3EB
:1009400090E0A0E0B0E0E80EF91E0A1F1B1F17FFA1
:1009500005C016950795F794E794319687E01695AC
:100960000795F794E7948A95D1F705C0EE24FF2404
:100970008701EFEFF0E06E2F679566276795902F60
:100980009F77D794DD24D7948E2F8695492F462BB9
:10099000582F5D29B701CA011F910F91FF90EF9069
:1009A000DF900895FC01DB01408151812281622F9B
:1009B0006F7770E0221F2227221F9381892F880FD3
:1009C000822B282F30E0991F9927991F11969C930D
:1009D000119721153105A9F54115510561057105DD
:1009E00011F482E037C082E89FEF13969C938E93B8
:1009F00012979A01AB0167E0220F331F441F551F66
:100A00006A95D1F783E08C930DC0220F331F441FEA
:100A1000551F12968D919C911397019713969C9355
:100A20008E931297203080E0380780E0480780E4FA
:100A3000580758F314962D933D934D935C93179755
:100A400008952F3F310579F4411551056105710570
:100A500019F484E08C93089564FF03C081E08C93C3
:100A600012C01C9210C02F57304013963C932E9307
:100A7000129783E08C9387E0440F551F661F771F02
:100A80008A95D1F7706414964D935D936D937C9322
:100A9000179708951F93DC01FB019C91923008F495
:100AA00047C08081823008F443C0943051F41196DD
:100AB0001C91843099F58181682F70E0611B710968
:100AC0003FC0843021F0923031F48230B9F181811D
:100AD000882389F12DC011961C9111978230F1F075
:100AE00081811817D9F412962D913C911397828128
:100AF00093818217930794F028173907BCF0149656
:100B00008D919D910D90BC91A02D248135814681C0
:100B10005781281739074A075B0718F4112341F05A
:100B20000AC082179307A407B50740F4112319F0F0
:100B300061E070E005C06FEF7FEF02C060E070E041
:100B4000CB011F910895DF93CF93CDB7DEB72E97DA
:100B50000FB6F894DEBF0FBECDBF0E94840E80E0BA
:100B600090E0A0E4B0E48B879C87AD87BE876B855F
:100B70007C858D859E8520E030E04AEF54E40E941C
:100B80001F02DC01CB018F839887A987BA876F8109
:100B9000788589859A8520E030E040E85FE30E940F
:100BA000790388232CF481E090E09E838D833FC0FD
:100BB0006F81788589859A8520E03FEF4FE757E47C
:100BC0000E94190318164CF56B857C858D859E85D2
:100BD00020E030E040E251E40E941F02DC01CB0142
:100BE000BC01CD010E944900DC01CB019E838D83B5
:100BF0000FC088EC90E09C838B838B819C81019754
:100C0000F1F79C838B838D819E8101979E838D83D9
:100C10008D819E81009769F714C06F8178858985E1
:100C20009A850E944900DC01CB019E838D838D81D2
:100C30009E819A83898389819A810197F1F79A83AA
:100C4000898380E00E9479079093930080939200BB
:100C50008091920090919300CC01A0E0B0E020E060
:100C60003AE040E050E0BC01CD010E94F711DC0108
:100C7000CB01072E7AE0B695A795979587957A953B
:100C8000D1F7702D909395008093940080919400FB
:100C9000909195002AE030E0B9010E941612CB0134
:100CA00090938F0080938E0080E690E061E070E08A
:100CB00041E050E00E94181080918E0090918F00CA
:100CC000CC01A0E0B0E0BC01CD0141E02BE00E94EE
:100CD000B50F80918E0090918F008931910558F069
:100CE00082E064E041E00E94AF0782E064E041E01E
:100CF0000E94AF0805C082E064E040E00E94AF08B7
:100D00000E948B062E960FB6F894DEBF0FBECDBFA5
:100D1000CF91DF910895DF93CF93CDB7DEB7609782
:100D20000FB6F894DEBF0FBECDBF81E00E947907F9
:100D300090939100809390002091900030919100C9
:100D400080E094E0821B930B988B8F878F85988926
:100D50000E945B108BE690E062E070E041E050E0C2
:100D60000E9418108091900090919100CC01A0E019
:100D7000B0E0BC01CD0142E02BE00E94B50F80E065
:100D800090E0AAEFB3E48B879C87AD87BE876B8525
:100D90007C858D859E8520E030E04AEF54E40E94FA
:100DA0001F02DC01CB018F839887A987BA876F81E7
:100DB000788589859A8520E030E040E85FE30E94ED
:100DC000790388232CF481E090E09E838D833FC0DB
:100DD0006F81788589859A8520E03FEF4FE757E45A
:100DE0000E94190318164CF56B857C858D859E85B0
:100DF00020E030E040E251E40E941F02DC01CB0120
:100E0000BC01CD010E944900DC01CB019E838D8392
:100E10000FC088EC90E09C838B838B819C81019731
:100E2000F1F79C838B838D819E8101979E838D83B7
:100E30008D819E81009769F714C06F8178858985BF
:100E40009A850E944900DC01CB019E838D838D81B0
:100E50009E819A83898389819A810197F1F79A8388
:100E6000898360960FB6F894DEBF0FBECDBFCF91D9
:100E7000DF910895DF93CF93CDB7DEB7A7E2B0E05F
:100E8000E7E2F0E0808180648C93A7E2B0E0E7E2E3
:100E9000F0E0808180688C93A7E2B0E0E7E2F0E0C8
:100EA00080818F7D8C93A6E2B0E0E6E2F0E0808165
:100EB0008F7D8C93A6E2B0E0E6E2F0E080818E7F49
:100EC0008C93A6E2B0E0E6E2F0E0808182608C9351
:100ED000A6E2B0E0E6E2F0E0808184608C93A6E2D6
:100EE000B0E0E6E2F0E0808180688C93CF91DF9102
:100EF0000895DF93CF9300D00F92CDB7DEB78B83E9
:100F0000A7E2B0E0E7E2F0E08081807E8C93A7E288
:100F1000B0E0E7E2F0E090818B81892B8C93A6E230
:100F2000B0E0E6E2F0E0808180648C93E6E2F0E0FD
:100F3000808182958F70882F90E0817090700097EB
:100F4000A9F3E4E2F0E0808191819A838983898129
:100F50009A810F900F900F90CF91DF910895DF93BA
:100F6000CF93CDB7DEB727970FB6F894DEBF0FBE8D
:100F7000CDBF89836A834B838B81813009F06FC039
:100F80008981282F30E03F832E838E819F8181309D
:100F9000910549F12E813F81223031052CF48E815B
:100FA0009F81009761F0D2C02E813F8122303105B0
:100FB00071F18E819F8183309105E9F1C7C0AAE369
:100FC000B0E0EAE3F0E08081482F8A81282F30E00A
:100FD00081E090E0022E02C0880F991F0A94E2F788
:100FE000842B8C93B3C0A7E3B0E0E7E3F0E080810B
:100FF000482F8A81282F30E081E090E0022E02C045
:10100000880F991F0A94E2F7842B8C939FC0A4E366
:10101000B0E0E4E3F0E08081482F8A81282F30E0BF
:1010200081E090E0022E02C0880F991F0A94E2F737
:10103000842B8C938BC0A1E3B0E0E1E3F0E08081EE
:10104000482F8A81282F30E081E090E0022E02C0F4
:10105000880F991F0A94E2F7842B8C9377C08B81B9
:10106000882309F073C08981282F30E03D832C83C9
:101070008C819D818130910559F12C813D812230F7
:1010800031052CF48C819D81009769F05FC02C8123
:101090003D812230310589F18C819D81833091051C
:1010A00009F440C053C0AAE3B0E0EAE3F0E0808175
:1010B000482F8A81282F30E081E090E0022E02C084
:1010C000880F991F0A94E2F7809584238C933EC081
:1010D000A7E3B0E0E7E3F0E08081482F8A81282F82
:1010E00030E081E090E0022E02C0880F991F0A9440
:1010F000E2F7809584238C9329C0A4E3B0E0E4E375
:10110000F0E08081482F8A81282F30E081E090E054
:10111000022E02C0880F991F0A94E2F7809584235B
:101120008C9314C0A1E3B0E0E1E3F0E08081482FAC
:101130008A81282F30E081E090E0022E02C0880FE3
:10114000991F0A94E2F7809584238C9327960FB613
:10115000F894DEBF0FBECDBFCF91DF910895DF932E
:10116000CF93CDB7DEB727970FB6F894DEBF0FBE8B
:10117000CDBF89836A834B838B81813009F06FC037
:101180008981282F30E03F832E838E819F8181309B
:10119000910549F12E813F81223031052CF48E8159
:1011A0009F81009761F0D2C02E813F8122303105AE
:1011B00071F18E819F8183309105E9F1C7C0ABE366
:1011C000B0E0EBE3F0E08081482F8A81282F30E007
:1011D00081E090E0022E02C0880F991F0A94E2F786
:1011E000842B8C93B3C0A8E3B0E0E8E3F0E0808107
:1011F000482F8A81282F30E081E090E0022E02C043
:10120000880F991F0A94E2F7842B8C939FC0A5E363
:10121000B0E0E5E3F0E08081482F8A81282F30E0BC
:1012200081E090E0022E02C0880F991F0A94E2F735
:10123000842B8C938BC0A2E3B0E0E2E3F0E08081EA
:10124000482F8A81282F30E081E090E0022E02C0F2
:10125000880F991F0A94E2F7842B8C9377C08B81B7
:10126000882309F073C08981282F30E03D832C83C7
:101270008C819D818130910559F12C813D812230F5
:1012800031052CF48C819D81009769F05FC02C8121
:101290003D812230310589F18C819D81833091051A
:1012A00009F440C053C0ABE3B0E0EBE3F0E0808171
:1012B000482F8A81282F30E081E090E0022E02C082
:1012C000880F991F0A94E2F7809584238C933EC07F
:1012D000A8E3B0E0E8E3F0E08081482F8A81282F7E
:1012E00030E081E090E0022E02C0880F991F0A943E
:1012F000E2F7809584238C9329C0A5E3B0E0E5E371
:10130000F0E08081482F8A81282F30E081E090E052
:10131000022E02C0880F991F0A94E2F78095842359
:101320008C9314C0A2E3B0E0E2E3F0E08081482FA8
:101330008A81282F30E081E090E0022E02C0880FE1
:10134000991F0A94E2F7809584238C9327960FB611
:10135000F894DEBF0FBECDBFCF91DF910895DF932C
:10136000CF9300D000D00F92CDB7DEB78A836B83C6
:1013700019828A81282F30E03D832C834C815D8146
:101380004130510541F18C819D818230910534F4C9
:101390002C813D812115310561F052C04C815D8168
:1013A0004230510551F18C819D8183309105B9F115
:1013B00047C0E9E3F0E08081282F30E08B81882F5F
:1013C00090E0A90102C0559547958A95E2F7CA01B8
:1013D0008170898335C0E6E3F0E08081282F30E01A
:1013E0008B81882F90E0A90102C0559547958A9579
:1013F000E2F7CA018170898323C0E3E3F0E08081D2
:10140000282F30E08B81882F90E0A90102C05595EC
:1014100047958A95E2F7CA018170898311C0E0E39C
:10142000F0E08081282F30E08B81882F90E0A901A7
:1014300002C0559547958A95E2F7CA018170898364
:1014400089810F900F900F900F900F90CF91DF91A7
:101450000895DF93CF9300D000D0CDB7DEB7898356
:101460006A838981282F30E03C832B838B819C8188
:1014700081309105D1F02B813C81223031052CF453
:101480008B819C81009761F01EC02B813C812230B2
:10149000310581F08B819C818330910581F013C0EF
:1014A000EBE3F0E08A8180830EC0E8E3F0E08A811C
:1014B000808309C0E5E3F0E08A81808304C0E2E331
:1014C000F0E08A8180830F900F900F900F90CF9162
:1014D000DF910895DF93CF9300D000D0CDB7DEB772
:1014E00089836A838981282F30E03C832B838B8119
:1014F0009C8181309105D1F02B813C8122303105D6
:101500002CF48B819C81009761F01EC02B813C8163
:101510002230310581F08B819C818330910581F0EF
:1015200013C0EAE3F0E08A8180830EC0E7E3F0E0D5
:101530008A81808309C0E4E3F0E08A81808304C06B
:10154000E1E3F0E08A8180830F900F900F900F907D
:10155000CF91DF910895DF93CF9300D000D0CDB726
:10156000DEB789836A838981282F30E03C832B830F
:101570008B819C818130910549F12B813C81223006
:1015800031052CF48B819C81009761F05AC02B812E
:101590003C812230310571F18B819C818330910532
:1015A000E9F14FC0ABE3B0E0EBE3F0E08081482F1E
:1015B0008A81282F30E081E090E0022E02C0880F5F
:1015C000991F0A94E2F784278C933BC0A8E3B0E00C
:1015D000E8E3F0E08081482F8A81282F30E081E025
:1015E00090E0022E02C0880F991F0A94E2F7842728
:1015F0008C9327C0A5E3B0E0E5E3F0E08081482FBD
:101600008A81282F30E081E090E0022E02C0880F0E
:10161000991F0A94E2F784278C9313C0A2E3B0E0E9
:10162000E2E3F0E08081482F8A81282F30E081E0DA
:1016300090E0022E02C0880F991F0A94E2F78427D7
:101640008C930F900F900F900F90CF91DF91089592
:10165000DF93CF93CDB7DEB72F970FB6F894DEBFE9
:101660000FBECDBF8F8783E065E040E00E94AF08EA
:1016700083E066E040E00E94AF0881E06F850E9451
:10168000290A83E067E041E00E94AF0880E090E033
:10169000A0E8BFE38B879C87AD87BE876B857C8581
:1016A0008D859E8520E030E04AEF54E40E941F02C1
:1016B000DC01CB018F839887A987BA876F817885F2
:1016C00089859A8520E030E040E85FE30E94790355
:1016D00088232CF481E090E09E838D833FC06F814E
:1016E000788589859A8520E03FEF4FE757E40E948F
:1016F000190318164CF56B857C858D859E8520E039
:1017000030E040E251E40E941F02DC01CB01BC0149
:10171000CD010E944900DC01CB019E838D830FC067
:1017200088EC90E09C838B838B819C810197F1F7FF
:101730009C838B838D819E8101979E838D838D8178
:101740009E81009769F714C06F81788589859A8595
:101750000E944900DC01CB019E838D838D819E8197
:101760009A83898389819A810197F1F79A83898382
:1017700083E067E040E00E94AF082F960FB6F89430
:10178000DEBF0FBECDBFCF91DF910895DF93CF9322
:10179000CDB7DEB72F970FB6F894DEBF0FBECDBF23
:1017A0008F8783E065E041E00E94AF0883E066E058
:1017B00040E00E94AF0881E06F850E94290A83E023
:1017C00067E041E00E94AF0880E090E0A0E8BFE35E
:1017D0008B879C87AD87BE876B857C858D859E8535
:1017E00020E030E04AEF54E40E941F02DC01CB010C
:1017F0008F839887A987BA876F81788589859A852D
:1018000020E030E040E85FE30E94790388232CF475
:1018100081E090E09E838D833FC06F8178858985CC
:101820009A8520E03FEF4FE757E40E94190318160E
:101830004CF56B857C858D859E8520E030E040E20F
:1018400051E40E941F02DC01CB01BC01CD010E94CA
:101850004900DC01CB019E838D830FC088EC90E0B2
:101860009C838B838B819C810197F1F79C838B8375
:101870008D819E8101979E838D838D819E810097AE
:1018800069F714C06F81788589859A850E9449001F
:10189000DC01CB019E838D838D819E819A83898318
:1018A00089819A810197F1F79A83898383E067E0C0
:1018B00040E00E94AF082F960FB6F894DEBF0FBE2F
:1018C000CDBFCF91DF910895DF93CF9300D00F92DA
:1018D000CDB7DEB79B838A8319820EC08981282FFA
:1018E00030E08A819B81FC01E20FF31F80810E941E
:1018F000C60B89818F5F89838981282F30E08A8197
:101900009B81FC01E20FF31F8081882339F70F9040
:101910000F900F90CF91DF910895DF93CF93CDB7C4
:10192000DEB7E8970FB6F894DEBF0FBECDBF81E0FB
:101930006FEF0E946A0A83E065E041E00E94AF0712
:1019400083E066E041E00E94AF0783E067E041E0AA
:101950000E94AF0780E090E0ACE0B2E48DAB9EABBC
:10196000AFABB8AF6DA97EA98FA998AD20E030E0EC
:101970004AEF54E40E941F02DC01CB0189AB9AAB11
:10198000ABABBCAB69A97AA98BA99CA920E030E0DC
:1019900040E85FE30E94790388232CF481E090E023
:1019A00098AB8FA73FC069A97AA98BA99CA920E011
:1019B0003FEF4FE757E40E94190318164CF56DA945
:1019C0007EA98FA998AD20E030E040E251E40E946A
:1019D0001F02DC01CB01BC01CD010E944900DC01EA
:1019E000CB0198AB8FA70FC088EC90E09EA78DA786
:1019F0008DA59EA50197F1F79EA78DA78FA598A904
:101A0000019798AB8FA78FA598A9009769F714C085
:101A100069A97AA98BA99CA90E944900DC01CB0184
:101A200098AB8FA78FA598A99CA78BA78BA59CA5E2
:101A30000197F1F79CA78BA788E30E94280B80E011
:101A400090E0A0E8BFE38FA398A7A9A7BAA76FA1CA
:101A500078A589A59AA520E030E04AEF54E40E94D9
:101A60001F02DC01CB018BA39CA3ADA3BEA36BA182
:101A70007CA18DA19EA120E030E040E85FE30E94C0
:101A8000790388232CF481E090E09AA389A33FC0D6
:101A90006BA17CA18DA19EA120E03FEF4FE757E411
:101AA0000E94190318164CF56FA178A589A59AA56F
:101AB00020E030E040E251E40E941F02DC01CB0153
:101AC000BC01CD010E944900DC01CB019AA389A38E
:101AD0000FC088EC90E098A38F8F8F8D98A101970D
:101AE000F1F798A38F8F89A19AA101979AA389A34F
:101AF00089A19AA1009769F714C06BA17CA18DA15F
:101B00009EA10E944900DC01CB019AA389A389A16F
:101B10009AA19E8F8D8F8D8D9E8D0197F1F79E8F4F
:101B20008D8F8FE00E94280B80E090E0A0E8BFE35B
:101B3000898F9A8FAB8FBC8F698D7A8D8B8D9C8DA1
:101B400020E030E04AEF54E40E941F02DC01CB01A8
:101B50008D8B9E8BAF8BB88F6D897E898F89988D89
:101B600020E030E040E85FE30E94790388232CF412
:101B700081E090E09C8B8B8B3FC06D897E898F8943
:101B8000988D20E03FEF4FE757E40E9419031816A5
:101B90004CF5698D7A8D8B8D9C8D20E030E040E294
:101BA00051E40E941F02DC01CB01BC01CD010E9467
:101BB0004900DC01CB019C8B8B8B0FC088EC90E043
:101BC0009A8B898B89899A890197F1F79A8B898BEE
:101BD0008B899C8901979C8B8B8B8B899C89009727
:101BE00069F714C06D897E898F89988D0E9449009C
:101BF000DC01CB019C8B8B8B8B899C89988B8F878D
:101C00008F8598890197F1F7988B8F8781E00E94E3
:101C1000280B80E090E0A0E8BFE38B879C87AD872E
:101C2000BE876B857C858D859E8520E030E04AEF00
:101C300054E40E941F02DC01CB018F839887A9879F
:101C4000BA876F81788589859A8520E030E040E801
:101C50005FE30E94790388232CF481E090E09E8367
:101C60008D833FC06F81788589859A8520E03FEF1D
:101C70004FE757E40E94190318164CF56B857C85D5
:101C80008D859E8520E030E040E251E40E941F02F5
:101C9000DC01CB01BC01CD010E944900DC01CB017C
:101CA0009E838D830FC088EC90E09C838B838B8117
:101CB0009C810197F1F79C838B838D819E81019795
:101CC0009E838D838D819E81009769F714C06F81FB
:101CD000788589859A850E944900DC01CB019E8325
:101CE0008D838D819E819A83898389819A810197D1
:101CF000F1F79A838983E8960FB6F894DEBF0FBE9A
:101D0000CDBFCF91DF910895DF93CF93CDB7DEB7ED
:101D10002E970FB6F894DEBF0FBECDBF81E00E94B4
:101D2000280B80E090E0A0E0B0E48B879C87AD8733
:101D3000BE876B857C858D859E8520E030E04AEFEF
:101D400054E40E941F02DC01CB018F839887A9878E
:101D5000BA876F81788589859A8520E030E040E8F0
:101D60005FE30E94790388232CF481E090E09E8356
:101D70008D833FC06F81788589859A8520E03FEF0C
:101D80004FE757E40E94190318164CF56B857C85C4
:101D90008D859E8520E030E040E251E40E941F02E4
:101DA000DC01CB01BC01CD010E944900DC01CB016B
:101DB0009E838D830FC088EC90E09C838B838B8106
:101DC0009C810197F1F79C838B838D819E81019784
:101DD0009E838D838D819E81009769F714C06F81EA
:101DE000788589859A850E944900DC01CB019E8314
:101DF0008D838D819E819A83898389819A810197C0
:101E0000F1F79A8389832E960FB6F894DEBF0FBE42
:101E1000CDBFCF91DF910895DF93CF93CDB7DEB7DC
:101E20002C970FB6F894DEBF0FBECDBF69877A87B7
:101E30008B879C8781E090E0A0E0B0E08D839E835B
:101E4000AF83B88719821A821B821C8289859A8582
:101E5000AB85BC850097A105B105B1F480E30E9474
:101E6000C60B7AC08D819E81AF81B8852AE030E0B3
:101E700040E050E0BC01CD010E94F711DC01CB0134
:101E80008D839E83AF83B88789859A85AB85BC8512
:101E90002D813E814F815885BC01CD010E942A12BF
:101EA000DA01C9010097A105B105E1F68D819E8196
:101EB000AF81B8852AE030E040E050E0BC01CD01C0
:101EC0000E942A12DA01C9018D839E83AF83B887ED
:101ED0003AC089859A85AB85BC852D813E814F812D
:101EE0005885BC01CD010E942A12DA01C9018983FB
:101EF0009A83AB83BC838981805D0E94C60B8985F0
:101F00009A85AB85BC852D813E814F815885BC016A
:101F1000CD010E942A12DC01CB0189879A87AB8709
:101F2000BC878D819E81AF81B8852AE030E040E09A
:101F300050E0BC01CD010E942A12DA01C9018D8353
:101F40009E83AF83B8878D819E81AF81B8850097CE
:101F5000A105B10509F0BDCF2C960FB6F894DEBFF0
:101F60000FBECDBFCF91DF910895DF93CF9300D007
:101F700000D000D0CDB7DEB769837A838B839C8392
:101F80004D832E838D816E810E94D70F89819A8126
:101F9000AB81BC81BC01CD010E940C0F26960FB60F
:101FA000F894DEBF0FBECDBFCF91DF910895DF93D0
:101FB000CF9300D000D0CDB7DEB789836A838A8102
:101FC00081508A838981282F30E03C832B838B8149
:101FD0009C818130910531F02B813C81223031058B
:101FE00031F009C08A8180580E94280B04C08A8180
:101FF00080540E94280B0F900F900F900F90CF915C
:10200000DF910895DF93CF9300D00F92CDB7DEB765
:1020100089836A834B838A816B810E94D70F898170
:102020000E94C60B0F900F900F90CF91DF910895F3
:10203000DF93CF9300D000D0CDB7DEB79A838983EA
:102040006B834C838B816C810E94D70F89819A812D
:102050000E94640C0F900F900F900F90CF91DF9122
:102060000895DF93CF93CDB7DEB7AFE4B0E0EFE4F0
:10207000F0E0808180628C93AFE4B0E0EFE4F0E0C8
:10208000808181608C93AFE4B0E0EFE4F0E0808188
:1020900082608C93AEE4B0E0EEE4F0E08081886092
:1020A0008C93AEE4B0E0EEE4F0E0808182608C934B
:1020B000CF91DF910895DF93CF9300D0CDB7DEB7F6
:1020C0009A838983E8E4F0E089819A81918380830F
:1020D0000F900F90CF91DF910895DF93CF9300D0B1
:1020E00000D0CDB7DEB780E890E09C838B8383E39C
:1020F00090E09A838983E9E2F0E089818083E0E4DB
:10210000F0E089819A81892F99278083ABE2B0E042
:10211000EBE2F0E080818D7F8C93ABE2B0E0EBE20C
:10212000F0E080818E7F8C93AAE2B0E0EAE2F0E0FA
:10213000808180618C93AAE2B0E0EAE2F0E08081E5
:1021400088608C938B819C8182609C838B838B8144
:102150009C8184609C838B83AAE2B0E0EAE2F0E099
:1021600080818B7F8C938B819C818F7B9C838B83E5
:102170008B819C818F7E9C838B838B819C818F7DC7
:102180009C838B838B819C8188609C838B83E0E420
:10219000F0E08B8180830F900F900F900F90CF9184
:1021A000DF910895DF93CF9300D0CDB7DEB79A8348
:1021B0008983EBE2F0E08081829586958770882F95
:1021C00090E0817090700097A1F3ECE2F0E08981DB
:1021D00080830F900F90CF91DF910895DF93CF937D
:1021E000CDB7DEB7EBE2F0E080818823DCF7ECE2EC
:1021F000F0E08081CF91DF910895DF93CF9300D0FD
:102200000F92CDB7DEB79B838A83198210C0898174
:10221000282F30E08A819B81FC01E20FF31F80812F
:10222000882F90E00E94D21089818F5F89838981F5
:10223000282F30E08A819B81FC01E20FF31F80810F
:10224000882329F70F900F900F90CF91DF91089579
:102250001F920F920FB60F9211242F933F934F931B
:102260005F936F937F938F939F93AF93BF93EF93FE
:10227000FF93DF93CF93CDB7DEB7ECE2F0E0808140
:1022800080938C0082E06FE00E946A0A80918C004B
:10229000893009F466C080918C00863451F482E064
:1022A00060E041E00E94AF0885E790E00E94FD10E9
:1022B0005CC080918C00863651F482E060E040E0A2
:1022C0000E94AF088CE790E00E94FD104EC0809104
:1022D0008C00813381F482E061E041E00E94AF082C
:1022E00082E062E040E00E94AF0882E063E040E00C
:1022F0000E94AF083AC080918C00823381F482E062
:1023000061E041E00E94AF0882E062E041E00E94AB
:10231000AF0882E063E040E00E94AF0826C08091F1
:102320008C00833381F482E061E041E00E94AF08D9
:1023300082E062E041E00E94AF0882E063E041E0B9
:102340000E94AF0812C080918C00803329F482E093
:1023500060E00E94290A09C082E060E00E94290A28
:1023600004C082E060E00E94290ACF91DF91FF91D2
:10237000EF91BF91AF919F918F917F916F915F91FD
:102380004F913F912F910F900FBE0F901F90189576
:10239000DF93CF93CDB7DEB780E062E040E00E94EC
:1023A000AF0780E062E00E94AF098823D1F383E0A9
:1023B00064E041E00E94AF070E943110AFE5B0E059
:1023C000EFE5F0E0808180688C93AAE2B0E0EAE279
:1023D000F0E0808180688C930E946D100E948D0CCB
:1023E0000E943A070E94A3050E948B06FBCF629FC2
:1023F000D001739FF001829FE00DF11D649FE00DFD
:10240000F11D929FF00D839FF00D749FF00D659F5D
:10241000F00D9927729FB00DE11DF91F639FB00D5C
:10242000E11DF91FBD01CF0111240895AA1BBB1B9B
:1024300051E107C0AA1FBB1FA617B70710F0A61BC4
:10244000B70B881F991F5A95A9F780959095BC01E5
:10245000CD010895A1E21A2EAA1BBB1BFD010DC0E0
:10246000AA1FBB1FEE1FFF1FA217B307E407F50744
:1024700020F0A21BB30BE40BF50B661F771F881F20
:10248000991F1A9469F760957095809590959B01B6
:10249000AC01BD01CF0108952F923F924F925F9200
:1024A0006F927F928F929F92AF92BF92CF92DF9264
:1024B000EF92FF920F931F93CF93DF93CDB7DEB7C9
:1024C000CA1BDB0B0FB6F894DEBF0FBECDBF09945D
:1024D0002A88398848885F846E847D848C849B84B4
:1024E000AA84B984C884DF80EE80FD800C811B81C2
:1024F000AA81B981CE0FD11D0FB6F894DEBF0FBEF1
:0A250000CDBFED010895F894FFCF60
:10250A0054656D7056616C75653D004C445220529D
:10251A006561643D0046616E204F4E0046616E2043
:0E252A004F46460000000000000000000900BF
:00000001FF
