:100000000C942A000C9447000C9447000C94470071
:100010000C9447000C9447000C9447000C94470044
:100020000C9447000C9447000C9447000C94470034
:100030000C9447000C9447000C9447000C94470024
:100040000C9447000C9447000C9447000C94470014
:100050000C94470011241FBECFE5D8E0DEBFCDBF12
:1000600010E0A0E6B0E0E4EEFDE202C005900D92E3
:10007000A43EB107D9F710E0A4EEB0E001C01D9294
:10008000A93FB107E1F70E946D130C94F0160C9490
:100090000000EF92FF920F931F937B018C0120E0F1
:1000A00030E040E05FE40E94490388238CF0C801FF
:1000B000B70120E030E040E05FE40E94C1010E940F
:1000C000A9039B01AC01205030404040504806C07D
:1000D000C801B7010E94A9039B01AC01B901CA0183
:1000E0001F910F91FF90EF900895A0E0B0E0EBE733
:1000F000F0E00C94B916DC012B01FA019C919230CE
:1001000008F439C1EB018881823008F433C194309E
:1001100069F4843009F02FC111969C91119789815F
:10012000981709F428C1ABEBB0E025C1843009F47D
:1001300021C18230A9F4923009F01DC19A01AD01AC
:1001400088E0EA010990AE01E90109929E0181501F
:10015000C1F7E201898111969C918923818308C1AD
:10016000923009F407C112962D903C901397EB0141
:100170008A819B811496AD90BD90CD90DC901797AD
:10018000EC80FD800E811F819101281B390BB90184
:1001900037FF04C066277727621B730B6032710537
:1001A0000CF061C0121613066CF537014801062EDB
:1001B00004C096948794779467940A94D2F721E0C8
:1001C00030E040E050E004C0220F331F441F551FB1
:1001D0006A95D2F721503040404050402E213F21B7
:1001E00040235123211531054105510521F021E01E
:1001F00030E040E050E079018A01E628F72808293C
:1002000019293CC0232BD1F1260E371E350146019A
:10021000062E04C096948794779467940A94D2F734
:1002200021E030E040E050E004C0220F331F441FC3
:10023000551F6A95D2F721503040404050402A2146
:100240003B214C215D21211531054105510521F04E
:1002500021E030E040E050E059016A01A628B728CB
:10026000C828D9280BC0821593052CF01C01AA249C
:10027000BB24650103C0EE24FF24870111969C91E5
:10028000D20111968C91981709F445C0992339F041
:10029000A80197012A193B094C095D0906C0A6016E
:1002A00095012E193F09400B510B57FD08C01182D3
:1002B0003382228224833583468357831DC081E0A5
:1002C00081833382228288279927DC01821B930B4A
:1002D000A40BB50B84839583A683B7830DC0220F2F
:1002E000331F441F551F24833583468357838281E0
:1002F000938101979383828324813581468157813D
:10030000DA01C9010197A109B1098F5F9F4FAF4F72
:10031000BF4328F30BC0918333822282EA0CFB1C7B
:100320000C1D1D1DE482F5820683178383E0808304
:10033000248135814681578157FF1AC0C901AA27F8
:1003400097FDA095BA2F81709070A070B0705695EF
:10035000479537952795822B932BA42BB52B848318
:100360009583A683B7838281938101969383828349
:10037000DF0101C0D201CD01CDB7DEB7E2E10C94BF
:10038000D516A0E2B0E0E7ECF1E00C94C516698365
:100390007A838B839C832D833E834F835887E9E048
:1003A000EE2EF12CEC0EFD1ECE010196B7010E943F
:1003B000D2048E010F5E1F4FCE010596B8010E9438
:1003C000D2048A8991E089278A8BC701B801AE01DE
:1003D000475E5F4F0E9475000E94FD03A096E6E015
:1003E0000C94E116A0E2B0E0E8EFF1E00C94C51641
:1003F00069837A838B839C832D833E834F835887C5
:10040000F9E0EF2EF12CEC0EFD1ECE010196B701A6
:100410000E94D2048E010F5E1F4FCE010596B801D7
:100420000E94D204C701B801AE01475E5F4F0E942F
:1004300075000E94FD03A096E6E00C94E116A0E290
:10044000B0E0E5E2F2E00C94B91669837A838B831D
:100450009C832D833E834F835887CE010196BE0136
:10046000675F7F4F0E94D204CE010596BE016F5E8A
:100470007F4F0E94D2049985923088F0898982301A
:10048000C8F0943019F4823051F404C0843029F457
:10049000923081F48BEB90E0C6C0923049F420E0BA
:1004A0009A858A89981321E02A87CE010996BBC0D4
:1004B000823049F420E09A858A89981321E02A8BBA
:1004C000CE014196B0C02D843E844F8458886D88FB
:1004D0007E888F88988CEE24FF248701AA24BB2471
:1004E000650140E050E060E070E0E0E0F0E0C10174
:1004F00081709070892BE9F0E60CF71C081D191D1E
:100500009A01AB012A0D3B1D4C1D5D1D80E090E062
:10051000A0E0B0E0E614F7040805190520F481E036
:1005200090E0A0E0B0E0BA01A901480F591F6A1F8E
:100530007B1FAA0CBB1CCC1CDD1C97FE08C081E0F5
:1005400090E0A0E0B0E0A82AB92ACA2ADB2A3196B6
:10055000E032F10549F0660C771C881C991C569412
:10056000479437942794C3CFFA85EA892B893C892D
:100570008B859C85280F391F2E5F3F4F17C0CA01FE
:1005800081709070892B61F016950795F794E79428
:1005900080E090E0A0E0B0E8E82AF92A0A2B1B2BC3
:1005A00076956795579547952F5F3F4F77FDE7CF36
:1005B0000CC0440F551F661F771F17FD4160EE0CDE
:1005C000FF1C001F111F21503040403090E05907A0
:1005D00090E0690790E4790760F32B8F3C8FDB0193
:1005E000CA018F779070A070B07080349105A1051A
:1005F000B10561F447FD0AC0E114F10401051105DC
:1006000029F0405C5F4F6F4F7F4F40781A8EFE1786
:1006100011F081E08A8F4D8F5E8F6F8F78A383E01A
:10062000898FCE0149960E94FD03A096E2E10C94C9
:10063000D516A8E1B0E0EFE1F3E00C94C5166983AC
:100640007A838B839C832D833E834F83588789E0F5
:10065000E82EF12CEC0EFD1ECE010196B7010E9492
:10066000D2048E010F5E1F4FCE010596B8010E9485
:10067000D2048985823040F08989823028F0C70110
:10068000B8010E944A0501C08FEF6896E6E00C941D
:10069000E116A8E1B0E0EFE4F3E00C94C51669833D
:1006A0007A838B839C832D833E834F83588789E095
:1006B000E82EF12CEC0EFD1ECE010196B7010E9432
:1006C000D2048E010F5E1F4FCE010596B8010E9425
:1006D000D2048985823040F08989823028F0C701B0
:1006E000B8010E944A0501C08FEF6896E6E00C94BD
:1006F000E116A8E1B0E0EFE7F3E00C94C5166983DA
:100700007A838B839C832D833E834F83588789E034
:10071000E82EF12CEC0EFD1ECE010196B7010E94D1
:10072000D2048E010F5E1F4FCE010596B8010E94C4
:10073000D2048985823040F08989823028F0C7014F
:10074000B8010E944A0501C081E06896E6E00C9479
:10075000E116ACE0B0E0EFEAF3E00C94C91669836F
:100760007A838B839C83CE010196BE016B5F7F4FA2
:100770000E94D2048D81823061F1823050F1843048
:1007800021F48E81882351F12EC02F81388537FDC9
:1007900020C06E812F3131051CF06623F9F023C093
:1007A0008EE190E0821B930B29853A854B855C8511
:1007B00004C056954795379527958A95D2F76623B5
:1007C000B1F050954095309521953F4F4F4F5F4F79
:1007D0000EC020E030E040E050E009C02FEF3FEFD6
:1007E0004FEF5FE704C020E030E040E050E8B9019F
:1007F000CA012C96E2E00C94E516DF92EF92FF928C
:100800000F931F93FC01E480F58006811781D1804E
:100810008081823048F480E090E0A0E1B0E0E82AF6
:10082000F92A0A2B1B2BA5C0843009F49FC0823003
:1008300021F4EE24FF24870105C0E114F104010531
:10084000110519F4E0E0F0E096C0628173819FEF3A
:10085000623879070CF05BC022E83FEF261B370BAC
:100860002A3131052CF020E030E040E050E02AC091
:10087000B801A701022E04C0769567955795479554
:100880000A94D2F781E090E0A0E0B0E004C0880FC5
:10089000991FAA1FBB1F2A95D2F70197A109B10979
:1008A0008E219F21A023B1230097A105B10521F03E
:1008B00081E090E0A0E0B0E09A01AB01282B392B59
:1008C0004A2B5B2BDA01C9018F779070A070B07052
:1008D00080349105A105B10539F427FF09C0205CDA
:1008E0003F4F4F4F5F4F04C0215C3F4F4F4F5F4F13
:1008F000E0E0F0E02030A0E03A07A0E04A07A0E402
:100900005A0710F0E1E0F0E079018A0127C0603871
:10091000710564F5FB01E158FF4FD801C7018F77DE
:100920009070A070B07080349105A105B10539F4C4
:10093000E7FE0DC080E490E0A0E0B0E004C08FE3EB
:1009400090E0A0E0B0E0E80EF91E0A1F1B1F17FFA1
:1009500005C016950795F794E794319687E01695AC
:100960000795F794E7948A95D1F705C0EE24FF2404
:100970008701EFEFF0E06E2F679566276795902F60
:100980009F77D794DD24D7948E2F8695492F462BB9
:10099000582F5D29B701CA011F910F91FF90EF9069
:1009A000DF900895FC01DB01408151812281622F9B
:1009B0006F7770E0221F2227221F9381892F880FD3
:1009C000822B282F30E0991F9927991F11969C930D
:1009D000119721153105A9F54115510561057105DD
:1009E00011F482E037C082E89FEF13969C938E93B8
:1009F00012979A01AB0167E0220F331F441F551F66
:100A00006A95D1F783E08C930DC0220F331F441FEA
:100A1000551F12968D919C911397019713969C9355
:100A20008E931297203080E0380780E0480780E4FA
:100A3000580758F314962D933D934D935C93179755
:100A400008952F3F310579F4411551056105710570
:100A500019F484E08C93089564FF03C081E08C93C3
:100A600012C01C9210C02F57304013963C932E9307
:100A7000129783E08C9387E0440F551F661F771F02
:100A80008A95D1F7706414964D935D936D937C9322
:100A9000179708951F93DC01FB019C91923008F495
:100AA00047C08081823008F443C0943051F41196DD
:100AB0001C91843099F58181682F70E0611B710968
:100AC0003FC0843021F0923031F48230B9F181811D
:100AD000882389F12DC011961C9111978230F1F075
:100AE00081811817D9F412962D913C911397828128
:100AF00093818217930794F028173907BCF0149656
:100B00008D919D910D90BC91A02D248135814681C0
:100B10005781281739074A075B0718F4112341F05A
:100B20000AC082179307A407B50740F4112319F0F0
:100B300061E070E005C06FEF7FEF02C060E070E041
:100B4000CB011F910895DF93CF93CDB7DEB72797E1
:100B50000FB6F894DEBF0FBECDBF89836A834B8387
:100B60008B81813009F06FC08981282F30E03F836D
:100B70002E838E819F818130910549F12E813F81A5
:100B8000223031052CF48E819F81009761F0D2C014
:100B90002E813F812230310571F18E819F8183301A
:100BA0009105E9F1C7C0AAE3B0E0EAE3F0E0808193
:100BB000482F8A81282F30E081E090E0022E02C089
:100BC000880F991F0A94E2F7842B8C93B3C0A7E394
:100BD000B0E0E7E3F0E08081482F8A81282F30E001
:100BE00081E090E0022E02C0880F991F0A94E2F77C
:100BF000842B8C939FC0A4E3B0E0E4E3F0E0808119
:100C0000482F8A81282F30E081E090E0022E02C038
:100C1000880F991F0A94E2F7842B8C938BC0A1E371
:100C2000B0E0E1E3F0E08081482F8A81282F30E0B6
:100C300081E090E0022E02C0880F991F0A94E2F72B
:100C4000842B8C9377C08B81882309F073C08981B2
:100C5000282F30E03D832C838C819D81813091054C
:100C600059F12C813D81223031052CF48C819D81FC
:100C7000009769F05FC02C813D812230310589F1F8
:100C80008C819D818330910509F440C053C0AAE353
:100C9000B0E0EAE3F0E08081482F8A81282F30E03D
:100CA00081E090E0022E02C0880F991F0A94E2F7BB
:100CB000809584238C933EC0A7E3B0E0E7E3F0E0A7
:100CC0008081482F8A81282F30E081E090E0022E39
:100CD00002C0880F991F0A94E2F7809584238C93B1
:100CE00029C0A4E3B0E0E4E3F0E08081482F8A81EA
:100CF000282F30E081E090E0022E02C0880F991F7B
:100D00000A94E2F7809584238C9314C0A1E3B0E0A9
:100D1000E1E3F0E08081482F8A81282F30E081E0F4
:100D200090E0022E02C0880F991F0A94E2F7809586
:100D300084238C9327960FB6F894DEBF0FBECDBFE9
:100D4000CF91DF910895DF93CF93CDB7DEB727978B
:100D50000FB6F894DEBF0FBECDBF89836A834B8385
:100D60008B81813009F06FC08981282F30E03F836B
:100D70002E838E819F818130910549F12E813F81A3
:100D8000223031052CF48E819F81009761F0D2C012
:100D90002E813F812230310571F18E819F81833018
:100DA0009105E9F1C7C0ABE3B0E0EBE3F0E080818F
:100DB000482F8A81282F30E081E090E0022E02C087
:100DC000880F991F0A94E2F7842B8C93B3C0A8E391
:100DD000B0E0E8E3F0E08081482F8A81282F30E0FE
:100DE00081E090E0022E02C0880F991F0A94E2F77A
:100DF000842B8C939FC0A5E3B0E0E5E3F0E0808115
:100E0000482F8A81282F30E081E090E0022E02C036
:100E1000880F991F0A94E2F7842B8C938BC0A2E36E
:100E2000B0E0E2E3F0E08081482F8A81282F30E0B3
:100E300081E090E0022E02C0880F991F0A94E2F729
:100E4000842B8C9377C08B81882309F073C08981B0
:100E5000282F30E03D832C838C819D81813091054A
:100E600059F12C813D81223031052CF48C819D81FA
:100E7000009769F05FC02C813D812230310589F1F6
:100E80008C819D818330910509F440C053C0ABE350
:100E9000B0E0EBE3F0E08081482F8A81282F30E03A
:100EA00081E090E0022E02C0880F991F0A94E2F7B9
:100EB000809584238C933EC0A8E3B0E0E8E3F0E0A3
:100EC0008081482F8A81282F30E081E090E0022E37
:100ED00002C0880F991F0A94E2F7809584238C93AF
:100EE00029C0A5E3B0E0E5E3F0E08081482F8A81E6
:100EF000282F30E081E090E0022E02C0880F991F79
:100F00000A94E2F7809584238C9314C0A2E3B0E0A6
:100F1000E2E3F0E08081482F8A81282F30E081E0F1
:100F200090E0022E02C0880F991F0A94E2F7809584
:100F300084238C9327960FB6F894DEBF0FBECDBFE7
:100F4000CF91DF910895DF93CF9300D000D00F921F
:100F5000CDB7DEB78A836B8319828A81282F30E070
:100F60003D832C834C815D814130510541F18C8161
:100F70009D818230910534F42C813D81211531050C
:100F800061F052C04C815D814230510551F18C813C
:100F90009D8183309105B9F147C0E9E3F0E080819C
:100FA000282F30E08B81882F90E0A90102C0559551
:100FB00047958A95E2F7CA018170898335C0E6E3D7
:100FC000F0E08081282F30E08B81882F90E0A9010C
:100FD00002C0559547958A95E2F7CA0181708983C9
:100FE00023C0E3E3F0E08081282F30E08B81882F5D
:100FF00090E0A90102C0559547958A95E2F7CA018C
:101000008170898311C0E0E3F0E08081282F30E017
:101010008B81882F90E0A90102C0559547958A954C
:10102000E2F7CA018170898389810F900F900F9038
:101030000F900F90CF91DF910895DF93CF9300D061
:1010400000D0CDB7DEB789836A838981282F30E04D
:101050003C832B838B819C8181309105D1F02B8146
:101060003C81223031052CF48B819C81009761F00A
:101070001EC02B813C812230310581F08B819C8107
:101080008330910581F013C0EBE3F0E08A81808327
:101090000EC0E8E3F0E08A81808309C0E5E3F0E078
:1010A0008A81808304C0E2E3F0E08A8180830F902C
:1010B0000F900F900F90CF91DF910895DF93CF9312
:1010C00000D000D0CDB7DEB789836A838981282F0D
:1010D00030E03C832B838B819C8181309105D1F062
:1010E0002B813C81223031052CF48B819C8100972F
:1010F00061F01EC02B813C812230310581F08B8153
:101100009C818330910581F013C0EAE3F0E08A818D
:1011100080830EC0E7E3F0E08A81808309C0E4E3C6
:10112000F0E08A81808304C0E1E3F0E08A8180837B
:101130000F900F900F900F90CF91DF910895DF9354
:10114000CF9300D000D0CDB7DEB789836A83898181
:10115000282F30E03C832B838B819C81813091054B
:1011600049F12B813C81223031052CF48B819C810B
:10117000009761F05AC02B813C812230310571F11A
:101180008B819C8183309105E9F14FC0ABE3B0E0E6
:10119000EBE3F0E08081482F8A81282F30E081E066
:1011A00090E0022E02C0880F991F0A94E2F784276C
:1011B0008C933BC0A8E3B0E0E8E3F0E08081482FE7
:1011C0008A81282F30E081E090E0022E02C0880F53
:1011D000991F0A94E2F784278C9327C0A5E3B0E017
:1011E000E5E3F0E08081482F8A81282F30E081E01C
:1011F00090E0022E02C0880F991F0A94E2F784271C
:101200008C9313C0A2E3B0E0E2E3F0E08081482FCA
:101210008A81282F30E081E090E0022E02C0880F02
:10122000991F0A94E2F784278C930F900F900F90E8
:101230000F90CF91DF910895DF93CF93CDB7DEB7B5
:1012400061970FB6F894DEBF0FBECDBF988B8F8726
:10125000698B0E943D0C8F859889892F9927806A18
:101260000E946C0C8F850E94CC0C0E943D0C8989D9
:101270000E94CC0C0E94570C80E090E0A0E2B1E408
:101280008B879C87AD87BE876B857C858D859E858A
:1012900020E030E04AEF54E40E941F02DC01CB0161
:1012A0008F839887A987BA876F81788589859A8582
:1012B00020E030E040E85FE30E94790388232CF4CB
:1012C00081E090E09E838D833FC06F817885898522
:1012D0009A8520E03FEF4FE757E40E941903181664
:1012E0004CF56B857C858D859E8520E030E040E265
:1012F00051E40E941F02DC01CB01BC01CD010E9420
:101300004900DC01CB019E838D830FC088EC90E007
:101310009C838B838B819C810197F1F79C838B83CA
:101320008D819E8101979E838D838D819E81009703
:1013300069F714C06F81788589859A850E94490074
:10134000DC01CB019E838D838D819E819A8389836D
:1013500089819A810197F1F79A83898361960FB603
:10136000F894DEBF0FBECDBFCF91DF910895DF931C
:10137000CF9300D00F92CDB7DEB79B838A830E94B4
:101380003D0C8A819B81892F9927806A0E946C0C71
:101390008A810E94CC0C0E943D0C8A819B81892FFE
:1013A0009927806A0E949C0C0E94120D89830E94DA
:1013B000570C89810F900F900F90CF91DF91089576
:1013C000DF93CF93CDB7DEB7E7970FB6F894DEBFC4
:1013D0000FBECDBFCE018E969CAB8BABE9E8F0E0A3
:1013E000FEABEDABF5E0FFABEDA9FEA900808DA94A
:1013F0009EA901969EAB8DABEBA9FCA900828BA99F
:101400009CA901969CAB8BAB9FA991509FABEFA978
:10141000EE2351F70E94C90F0E94280D8FEF809391
:10142000CB001DA680E690E061E070E041E050E076
:101430000E9454138FEF8093CB00A2C00E94370DFF
:101440008093CB008091CB008F3FC1F38091E80067
:101450008F5F8093E8008091CB00863209F495C0BD
:101460008091CB00882F90E0A0E0B0E02091E800D0
:10147000BC01CD0142E00E94F11280E090E0A8E4BE
:10148000B2E48FA398A7A9A7BAA76FA178A589A549
:101490009AA520E030E04AEF54E40E941F02DC01EC
:1014A000CB018BA39CA3ADA3BEA36BA17CA18DA1FB
:1014B0009EA120E030E040E85FE30E9479038823AA
:1014C0002CF481E090E09AA389A33FC06BA17CA19A
:1014D0008DA19EA120E03FEF4FE757E40E94190342
:1014E00018164CF56FA178A589A59AA520E030E0E3
:1014F00040E251E40E941F02DC01CB01BC01CD019E
:101500000E944900DC01CB019AA389A30FC088EC9B
:1015100090E098A38F8F8F8D98A10197F1F798A3F2
:101520008F8F89A19AA101979AA389A389A19AA1D2
:10153000009769F714C06BA17CA18DA19EA10E94A8
:101540004900DC01CB019AA389A389A19AA19E8FAE
:101550008D8F8D8D9E8D0197F1F79E8F8D8F909140
:10156000E8008AE262E0492F0E943E138091E80081
:10157000882F90E02091CB00FC01EB50FF4F20839F
:101580008091CB00863209F059CF1CA625C18CA5CD
:10159000882F90E0FC01EB50FF4F40818CA5282F55
:1015A00030E0CE018E96FC01E20FF31F80814817D8
:1015B00019F48CA58F5F8CA78CA5843009F009C124
:1015C0000E94C0118FE690E061E070E041E050E0E1
:1015D0000E9454131BA67DC08BA5982F925F8EE2AC
:1015E00061E0492F0E943E1380E090E0AAEFB3E44F
:1015F000898F9A8FAB8FBC8F698D7A8D8B8D9C8DE7
:1016000020E030E04AEF54E40E941F02DC01CB01ED
:101610008D8B9E8BAF8BB88F6D897E898F89988DCE
:1016200020E030E040E85FE30E94790388232CF457
:1016300081E090E09C8B8B8B3FC06D897E898F8988
:10164000988D20E03FEF4FE757E40E9419031816EA
:101650004CF5698D7A8D8B8D9C8D20E030E040E2D9
:1016600051E40E941F02DC01CB01BC01CD010E94AC
:101670004900DC01CB019C8B8B8B0FC088EC90E088
:101680009A8B898B89899A890197F1F79A8B898B33
:101690008B899C8901979C8B8B8B8B899C8900976C
:1016A00069F714C06D897E898F89988D0E944900E1
:1016B000DC01CB019C8B8B8B8B899C89988B8F87D2
:1016C0008F8598890197F1F7988B8F878BA58F5F0E
:1016D0008BA78BA5843008F47FCF80E090E0A8E44E
:1016E000B3E48B879C87AD87BE876B857C858D85B2
:1016F0009E8520E030E04AEF54E40E941F02DC01A6
:10170000CB018F839887A987BA876F817885898570
:101710009A8520E030E040E85FE30E947903882367
:101720002CF481E090E09E838D833FC06F817885AB
:1017300089859A8520E03FEF4FE757E40E9419031F
:1017400018164CF56B857C858D859E8520E030E0F4
:1017500040E251E40E941F02DC01CB01BC01CD013B
:101760000E944900DC01CB019E838D830FC088EC71
:1017700090E09C838B838B819C810197F1F79C8304
:101780008B838D819E8101979E838D838D819E8128
:10179000009769F714C06F81788589859A850E94C2
:1017A0004900DC01CB019E838D838D819E819A83CC
:1017B000898389819A810197F1F79A8389830E94AD
:1017C000C0118FE790E061E070E041E050E00E94DE
:1017D00054138CA58F5F8CA78CA5843008F4D7CECA
:1017E0000E947B1380E063E041E00E94A306E7963D
:1017F0000FB6F894DEBF0FBECDBFCF91DF91089535
:10180000DF93CF93CDB7DEB7A1E2B0E0E1E2F0E045
:1018100080818E7F8C93A1E2B0E0E1E2F0E08081F4
:101820008D7F8C93E0E2F0E082E08083A6E5B0E07B
:10183000E6E5F0E0808184608C93CF91DF9108959C
:10184000DF93CF930F92CDB7DEB78983A6E5B0E0E3
:10185000E6E5F0E0808180648C93E2E2F0E089814B
:10186000880F8083A6E5B0E0E6E5F0E08081846043
:101870008C930F90CF91DF910895DF93CF93CDB7E5
:10188000DEB7A6E5B0E0E6E5F0E0808180688C9305
:10189000A6E5B0E0E6E5F0E0808180628C93E6E5C5
:1018A000F0E080818823DCF7CF91DF910895DF930A
:1018B000CF93CDB7DEB7A6E5B0E0E6E5F0E08081F6
:1018C00080688C93A6E5B0E0E6E5F0E08081806179
:1018D0008C93CF91DF910895DF93CF930F92CDB783
:1018E000DEB78983E3E2F0E08981880F8083A3E299
:1018F000B0E0E3E2F0E080818E7F8C93A6E5B0E07B
:10190000E6E5F0E080818F7D8C93A6E5B0E0E6E52A
:10191000F0E0808180688C93A6E5B0E0E6E5F0E039
:10192000808184608C93E6E5F0E080818823DCF799
:101930000F90CF91DF910895DF93CF930F92CDB7A2
:10194000DEB78983E3E2F0E08981880F8083A3E238
:10195000B0E0E3E2F0E0808181608C93A6E5B0E046
:10196000E6E5F0E080818F7D8C93A6E5B0E0E6E5CA
:10197000F0E0808180688C93A6E5B0E0E6E5F0E0D9
:10198000808184608C93E6E5F0E080818823DCF739
:101990000F90CF91DF910895DF93CF930F92CDB742
:1019A000DEB78983E3E2F0E089818083A6E5B0E0D9
:1019B000E6E5F0E0808180688C93A6E5B0E0E6E59E
:1019C000F0E0808184608C93E6E5F0E080818823FC
:1019D000DCF70F90CF91DF910895DF93CF93CDB7D0
:1019E000DEB7E1E2F0E08081882F90E0887F9070A0
:1019F00080369105B1F7A6E5B0E0E6E5F0E080813C
:101A000080688C93E1E2F0E08081882F90E0887F0D
:101A1000907080389105B1F7E3E2F0E08081CF91DA
:101A2000DF910895DF93CF93CDB7DEB7A6E5B0E0A1
:101A3000E6E5F0E0808180688C93E6E5F0E0808167
:101A40008823DCF7E3E2F0E08081CF91DF91089515
:101A5000DF93CF93CDB7DEB781E06FE00E945E08E1
:101A600081E06FEF0E941D08CF91DF910895DF9311
:101A7000CF93CDB7DEB763970FB6F894DEBF0FBE36
:101A8000CDBF188A8FEF8F871B8ACEC08B89882F96
:101A900090E0FC01E452FF4F908181E0692F40E02B
:101AA0000E94A3061A8AAAC08A89882F90E0FC01A6
:101AB000E052FF4F908181E0692F0E94A307898B3C
:101AC0008989882309F097C080E090E0A0EAB1E41A
:101AD0008B879C87AD87BE876B857C858D859E8532
:101AE00020E030E04AEF54E40E941F02DC01CB0109
:101AF0008F839887A987BA876F81788589859A852A
:101B000020E030E040E85FE30E94790388232CF472
:101B100081E090E09E838D833FC06F8178858985C9
:101B20009A8520E03FEF4FE757E40E94190318160B
:101B30004CF56B857C858D859E8520E030E040E20C
:101B400051E40E941F02DC01CB01BC01CD010E94C7
:101B50004900DC01CB019E838D830FC088EC90E0AF
:101B60009C838B838B819C810197F1F79C838B8372
:101B70008D819E8101979E838D838D819E810097AB
:101B800069F721C06F81788589859A850E9449000F
:101B9000DC01CB019E838D838D819E819A83898315
:101BA00089819A810197F1F79A8389830CC08A8988
:101BB000882F90E0FC01E052FF4F908181E0692F77
:101BC0000E94A307898B8989882389F38B89482FF1
:101BD00050E08A89282F30E0CA01880F991F880FAA
:101BE000991F820F931FFC01E453FF4F80818F8761
:101BF00081E0888B07C08A898F5F8A8B8A898430CD
:101C000008F452CF8B89882F90E0FC01E452FF4FFB
:101C1000908181E0692F41E00E94A306888981308C
:101C200039F08B898F5F8B8B8B89843008F42ECFB2
:101C30008F8563960FB6F894DEBF0FBECDBFCF91F0
:101C4000DF910895DF93CF93CDB7DEB728970FB616
:101C5000F894DEBF0FBECDBF9C838B837E836D83E4
:101C60004F831A8219821AC08A81282F30E08B8113
:101C70009C81FC01E20FF31F40818A81282F30E014
:101C80008D819E81FC01E20FF31F8081481719F4BA
:101C900089818F5F89838A818F5F8A839A818F810F
:101CA000981710F399818F81981719F481E088872C
:101CB00001C01886888528960FB6F894DEBF0FBE3F
:101CC000CDBFCF91DF910895DF93CF93CDB7DEB72E
:101CD0002F970FB6F894DEBF0FBECDBF8F8782E07F
:101CE00065E040E00E94A30682E066E040E00E94DA
:101CF000A30683E06F850E941D0882E067E041E053
:101D00000E94A30680E090E0A0E8BFE38B879C8759
:101D1000AD87BE876B857C858D859E8520E030E014
:101D20004AEF54E40E941F02DC01CB018F839887A5
:101D3000A987BA876F81788589859A8520E030E008
:101D400040E85FE30E94790388232CF481E090E06F
:101D50009E838D833FC06F81788589859A8520E039
:101D60003FEF4FE757E40E94190318164CF56B85B7
:101D70007C858D859E8520E030E040E251E40E9424
:101D80001F02DC01CB01BC01CD010E944900DC0136
:101D9000CB019E838D830FC088EC90E09C838B8366
:101DA0008B819C810197F1F79C838B838D819E8130
:101DB00001979E838D838D819E81009769F714C062
:101DC0006F81788589859A850E944900DC01CB0165
:101DD0009E838D838D819E819A83898389819A8157
:101DE0000197F1F79A83898382E067E040E00E94DF
:101DF000A3062F960FB6F894DEBF0FBECDBFCF91CE
:101E0000DF910895DF93CF93CDB7DEB72F970FB64D
:101E1000F894DEBF0FBECDBF8F8782E065E041E062
:101E20000E94A30682E066E040E00E94A30683E0F1
:101E30006F850E941D0882E067E041E00E94A306D2
:101E400080E090E0A0E8BFE38B879C87AD87BE87EA
:101E50006B857C858D859E8520E030E04AEF54E4DB
:101E60000E941F02DC01CB018F839887A987BA8764
:101E70006F81788589859A8520E030E040E85FE3CE
:101E80000E94790388232CF481E090E09E838D8367
:101E90003FC06F81788589859A8520E03FEF4FE7C5
:101EA00057E40E94190318164CF56B857C858D85C7
:101EB0009E8520E030E040E251E40E941F02DC01F8
:101EC000CB01BC01CD010E944900DC01CB019E8306
:101ED0008D830FC088EC90E09C838B838B819C81E9
:101EE0000197F1F79C838B838D819E8101979E835F
:101EF0008D838D819E81009769F714C06F817885ED
:101F000089859A850E944900DC01CB019E838D83DF
:101F10008D819E819A83898389819A810197F1F7C6
:101F20009A83898382E067E040E00E94A3062F96AF
:101F30000FB6F894DEBF0FBECDBFCF91DF910895ED
:101F4000DF93CF9300D00F92CDB7DEB79B838A8308
:101F500019820EC08981282F30E08A819B81FC0183
:101F6000E20FF31F80810E94020F89818F5F8983B6
:101F70008981282F30E08A819B81FC01E20FF31FC9
:101F80008081882339F70F900F900F90CF91DF91C8
:101F90000895DF93CF93CDB7DEB7E8970FB6F894E7
:101FA000DEBF0FBECDBF83E06FEF0E945E0882E010
:101FB00065E041E00E94A30582E066E041E00E9406
:101FC000A30582E067E041E00E94A30580E090E085
:101FD000ACE0B2E48DAB9EABAFABB8AF6DA97EA960
:101FE0008FA998AD20E030E04AEF54E40E941F0230
:101FF000DC01CB0189AB9AABABABBCAB69A97AA9CD
:102000008BA99CA920E030E040E85FE30E947903BF
:1020100088232CF481E090E098AB8FA73FC069A99A
:102020007AA98BA99CA920E03FEF4FE757E40E94D3
:10203000190318164CF56DA97EA98FA998AD20E05B
:1020400030E040E251E40E941F02DC01CB01BC0100
:10205000CD010E944900DC01CB0198AB8FA70FC0D6
:1020600088EC90E09EA78DA78DA59EA50197F1F71E
:102070009EA78DA78FA598A9019798AB8FA78FA52D
:1020800098A9009769F714C069A97AA98BA99CA996
:102090000E944900DC01CB0198AB8FA78FA598A9BE
:1020A0009CA78BA78BA59CA50197F1F79CA78BA755
:1020B00088E30E94640E80E090E0A0E8BFE38FA375
:1020C00098A7A9A7BAA76FA178A589A59AA520E086
:1020D00030E04AEF54E40E941F02DC01CB018BA3E5
:1020E0009CA3ADA3BEA36BA17CA18DA19EA120E06A
:1020F00030E040E85FE30E94790388232CF481E01C
:1021000090E09AA389A33FC06BA17CA18DA19EA161
:1021100020E03FEF4FE757E40E94190318164CF5F3
:102120006FA178A589A59AA520E030E040E251E4AE
:102130000E941F02DC01CB01BC01CD010E944900BD
:10214000DC01CB019AA389A30FC088EC90E098A38F
:102150008F8F8F8D98A10197F1F798A38F8F89A109
:102160009AA101979AA389A389A19AA1009769F7D7
:1021700014C06BA17CA18DA19EA10E944900DC012D
:10218000CB019AA389A389A19AA19E8F8D8F8D8D52
:102190009E8D0197F1F79E8F8D8F8FE00E94640EC8
:1021A00080E090E0A0E8BFE3898F9A8FAB8FBC8F6F
:1021B000698D7A8D8B8D9C8D20E030E04AEF54E460
:1021C0000E941F02DC01CB018D8B9E8BAF8BB88FE1
:1021D0006D897E898F89988D20E030E040E85FE34B
:1021E0000E94790388232CF481E090E09C8B8B8BF8
:1021F0003FC06D897E898F89988D20E03FEF4FE742
:1022000057E40E94190318164CF5698D7A8D8B8D51
:102210009C8D20E030E040E251E40E941F02DC018E
:10222000CB01BC01CD010E944900DC01CB019C8B9C
:102230008B8B0FC088EC90E09A8B898B89899A8967
:102240000197F1F79A8B898B8B899C8901979C8BDD
:102250008B8B8B899C89009769F714C06D897E8967
:102260008F89988D0E944900DC01CB019C8B8B8B60
:102270008B899C89988B8F878F8598890197F1F737
:10228000988B8F8781E00E94640E80E090E0A0E848
:10229000BFE38B879C87AD87BE876B857C858D85EB
:1022A0009E8520E030E04AEF54E40E941F02DC01EA
:1022B000CB018F839887A987BA876F8178858985B5
:1022C0009A8520E030E040E85FE30E9479038823AC
:1022D0002CF481E090E09E838D833FC06F817885F0
:1022E00089859A8520E03FEF4FE757E40E94190364
:1022F00018164CF56B857C858D859E8520E030E039
:1023000040E251E40E941F02DC01CB01BC01CD017F
:102310000E944900DC01CB019E838D830FC088ECB5
:1023200090E09C838B838B819C810197F1F79C8348
:102330008B838D819E8101979E838D838D819E816C
:10234000009769F714C06F81788589859A850E9406
:102350004900DC01CB019E838D838D819E819A8310
:10236000898389819A810197F1F79A838983E89615
:102370000FB6F894DEBF0FBECDBFCF91DF910895A9
:10238000DF93CF93CDB7DEB72E970FB6F894DEBFAD
:102390000FBECDBF81E00E94640E80E090E0A0E01F
:1023A000B0E48B879C87AD87BE876B857C858D85E8
:1023B0009E8520E030E04AEF54E40E941F02DC01D9
:1023C000CB018F839887A987BA876F8178858985A4
:1023D0009A8520E030E040E85FE30E94790388239B
:1023E0002CF481E090E09E838D833FC06F817885DF
:1023F00089859A8520E03FEF4FE757E40E94190353
:1024000018164CF56B857C858D859E8520E030E027
:1024100040E251E40E941F02DC01CB01BC01CD016E
:102420000E944900DC01CB019E838D830FC088ECA4
:1024300090E09C838B838B819C810197F1F79C8337
:102440008B838D819E8101979E838D838D819E815B
:10245000009769F714C06F81788589859A850E94F5
:102460004900DC01CB019E838D838D819E819A83FF
:10247000898389819A810197F1F79A8389832E96BE
:102480000FB6F894DEBF0FBECDBFCF91DF91089598
:10249000DF93CF93CDB7DEB72C970FB6F894DEBF9E
:1024A0000FBECDBF69877A878B879C8781E090E0DC
:1024B000A0E0B0E08D839E83AF83B88719821A8233
:1024C0001B821C8289859A85AB85BC850097A105F6
:1024D000B105B1F480E30E94020F7AC08D819E8124
:1024E000AF81B8852AE030E040E050E0BC01CD018A
:1024F0000E947816DC01CB018D839E83AF83B88761
:1025000089859A85AB85BC852D813E814F81588513
:10251000BC01CD010E949716DA01C9010097A105FF
:10252000B105E1F68D819E81AF81B8852AE030E06A
:1025300040E050E0BC01CD010E949716DA01C901CC
:102540008D839E83AF83B8873AC089859A85AB8592
:10255000BC852D813E814F815885BC01CD010E94F3
:102560009716DA01C90189839A83AB83BC83898179
:10257000805D0E94020F89859A85AB85BC852D817F
:102580003E814F815885BC01CD010E949716DC0128
:10259000CB0189879A87AB87BC878D819E81AF816C
:1025A000B8852AE030E040E050E0BC01CD010E9457
:1025B0009716DA01C9018D839E83AF83B8878D8119
:1025C0009E81AF81B8850097A105B10509F0BDCF07
:1025D0002C960FB6F894DEBF0FBECDBFCF91DF9122
:1025E0000895DF93CF9300D000D000D0CDB7DEB7F1
:1025F00069837A838B839C834D832E838D816E8147
:102600000E94131389819A81AB81BC81BC01CD01E9
:102610000E94481226960FB6F894DEBF0FBECDBFBB
:10262000CF91DF910895DF93CF9300D000D0CDB745
:10263000DEB789836A838A8181508A838981282FC2
:1026400030E03C832B838B819C818130910531F07C
:102650002B813C812230310531F009C08A818058BC
:102660000E94640E04C08A8180540E94640E0F9000
:102670000F900F900F90CF91DF910895DF93CF933C
:1026800000D00F92CDB7DEB789836A834B838A81EE
:102690006B810E94131389810E94020F0F900F908B
:1026A0000F90CF91DF910895DF93CF9300D000D0AA
:1026B000CDB7DEB79A8389836B834C838B816C8122
:1026C0000E94131389819A810E94A00F0F900F908E
:1026D0000F900F90CF91DF910895DF93CF93CDB7F7
:1026E000DEB780E063E041E00E94A3050E94E009BC
:1026F000CF91DF9108950F931F93DF93CF93CDB7C1
:10270000DEB7C954D0400FB6F894DEBF0FBECDBFC0
:1027100080E060EF0E945E08FE01E75BFF4F1082E1
:10272000FE01E85BFF4F1082FE01E95BFF4F108264
:10273000A2C080E064E041E00E94A30680E065E082
:1027400040E00E94A30680E066E040E00E94A3060D
:1027500080E067E041E00E94A306FE01ED5BFF4FD1
:1027600080E090E0A0EAB1E480839183A283B38308
:102770008E01015C1F4FFE01ED5BFF4F6081718197
:102780008281938120E030E04AEF54E40E941F02EE
:10279000DC01CB01F80180839183A283B383FE0126
:1027A000FF96608171818281938120E030E040E872
:1027B0005FE30E94790388232CF481E090E09EAFD0
:1027C0008DAF46C0FE01FF96608171818281938149
:1027D00020E03FEF4FE757E40E941903181664F515
:1027E000FE01ED5BFF4F608171818281938120E06A
:1027F00030E040E251E40E941F02DC01CB01BC0149
:10280000CD010E944900DC01CB019EAF8DAF0FC00E
:1028100088EC90E09CAF8BAF8BAD9CAD0197F1F74E
:102820009CAF8BAF8DAD9EAD01979EAF8DAF8DAD43
:102830009EAD009769F716C0FE01FF966081718119
:10284000828193810E944900DC01CB019EAF8DAF54
:102850008DAD9EAD9AAF89AF89AD9AAD0197F1F775
:102860009AAF89AFDE01A85BBF4FFE01E85BFF4F67
:1028700080818F5F8C93FE01E85BFF4F808188230E
:1028800009F457CF8EE890E062E070E041E050E05C
:102890000E94541380E090E0A8ECB2E48DAB9EABB4
:1028A000AFABB8AF6DA97EA98FA998AD20E030E09D
:1028B0004AEF54E40E941F02DC01CB0189AB9AABC2
:1028C000ABABBCAB69A97AA98BA99CA920E030E08D
:1028D00040E85FE30E94790388232CF481E090E0D4
:1028E00098AB8FA73FC069A97AA98BA99CA920E0C2
:1028F0003FEF4FE757E40E94190318164CF56DA9F6
:102900007EA98FA998AD20E030E040E251E40E941A
:102910001F02DC01CB01BC01CD010E944900DC019A
:10292000CB0198AB8FA70FC088EC90E09EA78DA736
:102930008DA59EA50197F1F79EA78DA78FA598A9B4
:10294000019798AB8FA78FA598A9009769F7A4C0A6
:1029500069A97AA98BA99CA90E944900DC01CB0135
:1029600098AB8FA78FA598A99CA78BA78BA59CA593
:102970000197F1F79CA78BA78FC080E064E041E04E
:102980000E94A30680E065E041E00E94A30680E08B
:1029900066E040E00E94A30680E067E040E00E941D
:1029A000A30680E090E0A0EAB1E48FA398A7A9A7CE
:1029B000BAA76FA178A589A59AA520E030E04AEFD3
:1029C00054E40E941F02DC01CB018BA39CA3ADA3A6
:1029D000BEA36BA17CA18DA19EA120E030E040E8C8
:1029E0005FE30E94790388232CF481E090E09AA3AE
:1029F00089A33FC06BA17CA18DA19EA120E03FEFE8
:102A00004FE757E40E94190318164CF56FA178A5FB
:102A100089A59AA520E030E040E251E40E941F021F
:102A2000DC01CB01BC01CD010E944900DC01CB01DE
:102A30009AA389A30FC088EC90E098A38F8F8F8D05
:102A400098A10197F1F798A38F8F89A19AA1019777
:102A50009AA389A389A19AA1009769F714C06BA1D1
:102A60007CA18DA19EA10E944900DC01CB019AA30B
:102A700089A389A19AA19E8F8D8F8D8D9E8D01979F
:102A8000F1F79E8F8D8FDE01A75BBF4FFE01E75BE5
:102A9000FF4F80818F5F8C93FE01E75BFF4F80814A
:102AA000882309F46ACF8EE990E062E070E041E0AB
:102AB00050E00E94541380E090E0AAEFB3E4898FC5
:102AC0009A8FAB8FBC8F698D7A8D8B8D9C8D20E01A
:102AD00030E04AEF54E40E941F02DC01CB018D8BF1
:102AE0009E8BAF8BB88F6D897E898F89988D20E002
:102AF00030E040E85FE30E94790388232CF481E012
:102B000090E09C8B8B8B3FC06D897E898F89988DDF
:102B100020E03FEF4FE757E40E94190318164CF5E9
:102B2000698D7A8D8B8D9C8D20E030E040E251E400
:102B30000E941F02DC01CB01BC01CD010E944900B3
:102B4000DC01CB019C8B8B8B0FC088EC90E09A8BC7
:102B5000898B89899A890197F1F79A8B898B8B895F
:102B60009C8901979C8B8B8B8B899C89009769F73B
:102B7000A4C06D897E898F89988D0E944900DC01EF
:102B8000CB019C8B8B8B8B899C89988B8F878F85B6
:102B900098890197F1F7988B8F878FC080E064E068
:102BA00041E00E94A30680E065E040E00E94A306A9
:102BB00080E066E040E00E94A30680E067E041E03C
:102BC0000E94A30680E090E0A0EAB1E48B879C8796
:102BD000AD87BE876B857C858D859E8520E030E046
:102BE0004AEF54E40E941F02DC01CB018F839887D7
:102BF000A987BA876F81788589859A8520E030E03A
:102C000040E85FE30E94790388232CF481E090E0A0
:102C10009E838D833FC06F81788589859A8520E06A
:102C20003FEF4FE757E40E94190318164CF56B85E8
:102C30007C858D859E8520E030E040E251E40E9455
:102C40001F02DC01CB01BC01CD010E944900DC0167
:102C5000CB019E838D830FC088EC90E09C838B8397
:102C60008B819C810197F1F79C838B838D819E8161
:102C700001979E838D838D819E81009769F714C093
:102C80006F81788589859A850E944900DC01CB0196
:102C90009E838D838D819E819A83898389819A8188
:102CA0000197F1F79A838983DE01A95BBF4FFE018B
:102CB000E95BFF4F80818F5F8C93FE01E95BFF4FE3
:102CC0008081882309F46ACF8CEA90E062E070E0AA
:102CD00041E050E00E945413C75BDF4F0FB6F894F9
:102CE000DEBF0FBECDBFCF91DF911F910F91089531
:102CF000629FD001739FF001829FE00DF11D649FE0
:102D0000E00DF11D929FF00D839FF00D749FF00D6B
:102D1000659FF00D9927729FB00DE11DF91F639F0C
:102D2000B00DE11DF91FBD01CF0111240895A1E2ED
:102D30001A2EAA1BBB1BFD010DC0AA1FBB1FEE1F35
:102D4000FF1FA217B307E407F50720F0A21BB30B80
:102D5000E40BF50B661F771F881F991F1A9469F7FC
:102D600060957095809590959B01AC01BD01CF0158
:102D700008952F923F924F925F926F927F928F921F
:102D80009F92AF92BF92CF92DF92EF92FF920F93FA
:102D90001F93CF93DF93CDB7DEB7CA1BDB0B0FB604
:102DA000F894DEBF0FBECDBF09942A8839884888C1
:102DB0005F846E847D848C849B84AA84B984C88457
:102DC000DF80EE80FD800C811B81AA81B981CE0F4E
:102DD000D11D0FB6F894DEBF0FBECDBFED01089533
:042DE000F894FFCF95
:102DE400456E746572207572205041535320005310
:102DF400756363657366756C206C6F67696E0057E5
:102E0400656C636F6D652E2E003132333400446F70
:102E14006F72206F70656E696E67202E2E00434CB2
:102E24004F534520534F4F4E202E2E00446F6F7248
:102E340020436C6F736564202E2E00000000000098
:102E44000000000100020003000400FF0708092F2E
:102E54000405062A0102032D26003D2B000102036E
:042E64000405060754
:00000001FF
