:100000000C942A000C9447000C9447000C94470071
:100010000C9447000C9447000C9447000C94470044
:100020000C9447000C9447000C9447000C94470034
:100030000C9447000C9447000C9447000C94470024
:100040000C9447000C9447000C9447000C94470014
:100050000C94470011241FBECFE5D8E0DEBFCDBF12
:1000600011E0A0E6B0E0E0EFFBE302C005900D92E6
:10007000A633B107D9F711E0A6E3B1E001C01D92A4
:10008000AB34B107E1F70E94731A0C94F61D0C947F
:100090000000EF92FF920F931F937B018C0120E0F1
:1000A00030E040E05FE40E94490388238CF0C801FF
:1000B000B70120E030E040E05FE40E94C1010E940F
:1000C000A9039B01AC01205030404040504806C07D
:1000D000C801B7010E94A9039B01AC01B901CA0183
:1000E0001F910F91FF90EF900895A0E0B0E0EBE733
:1000F000F0E00C94BF1DDC012B01FA019C919230C1
:1001000008F439C1EB018881823008F433C194309E
:1001100069F4843009F02FC111969C91119789815F
:10012000981709F428C1ACE0B1E025C1843009F486
:1001300021C18230A9F4923009F01DC19A01AD01AC
:1001400088E0EA010990AE01E90109929E0181501F
:10015000C1F7E201898111969C918923818308C1AD
:10016000923009F407C112962D903C901397EB0141
:100170008A819B811496AD90BD90CD90DC901797AD
:10018000EC80FD800E811F819101281B390BB90184
:1001900037FF04C066277727621B730B6032710537
:1001A0000CF061C0121613066CF537014801062EDB
:1001B00004C096948794779467940A94D2F721E0C8
:1001C00030E040E050E004C0220F331F441F551FB1
:1001D0006A95D2F721503040404050402E213F21B7
:1001E00040235123211531054105510521F021E01E
:1001F00030E040E050E079018A01E628F72808293C
:1002000019293CC0232BD1F1260E371E350146019A
:10021000062E04C096948794779467940A94D2F734
:1002200021E030E040E050E004C0220F331F441FC3
:10023000551F6A95D2F721503040404050402A2146
:100240003B214C215D21211531054105510521F04E
:1002500021E030E040E050E059016A01A628B728CB
:10026000C828D9280BC0821593052CF01C01AA249C
:10027000BB24650103C0EE24FF24870111969C91E5
:10028000D20111968C91981709F445C0992339F041
:10029000A80197012A193B094C095D0906C0A6016E
:1002A00095012E193F09400B510B57FD08C01182D3
:1002B0003382228224833583468357831DC081E0A5
:1002C00081833382228288279927DC01821B930B4A
:1002D000A40BB50B84839583A683B7830DC0220F2F
:1002E000331F441F551F24833583468357838281E0
:1002F000938101979383828324813581468157813D
:10030000DA01C9010197A109B1098F5F9F4FAF4F72
:10031000BF4328F30BC0918333822282EA0CFB1C7B
:100320000C1D1D1DE482F5820683178383E0808304
:10033000248135814681578157FF1AC0C901AA27F8
:1003400097FDA095BA2F81709070A070B0705695EF
:10035000479537952795822B932BA42BB52B848318
:100360009583A683B7838281938101969383828349
:10037000DF0101C0D201CD01CDB7DEB7E2E10C94BF
:10038000DB1DA0E2B0E0E7ECF1E00C94CB1D69834B
:100390007A838B839C832D833E834F835887E9E048
:1003A000EE2EF12CEC0EFD1ECE010196B7010E943F
:1003B000D2048E010F5E1F4FCE010596B8010E9438
:1003C000D2048A8991E089278A8BC701B801AE01DE
:1003D000475E5F4F0E9475000E94FD03A096E6E015
:1003E0000C94E71DA0E2B0E0E8EFF1E00C94CB1D27
:1003F00069837A838B839C832D833E834F835887C5
:10040000F9E0EF2EF12CEC0EFD1ECE010196B701A6
:100410000E94D2048E010F5E1F4FCE010596B801D7
:100420000E94D204C701B801AE01475E5F4F0E942F
:1004300075000E94FD03A096E6E00C94E71DA0E283
:10044000B0E0E5E2F2E00C94BF1D69837A838B8310
:100450009C832D833E834F835887CE010196BE0136
:10046000675F7F4F0E94D204CE010596BE016F5E8A
:100470007F4F0E94D2049985923088F0898982301A
:10048000C8F0943019F4823051F404C0843029F457
:10049000923081F48CE091E0C6C0923049F420E0C3
:1004A0009A858A89981321E02A87CE010996BBC0D4
:1004B000823049F420E09A858A89981321E02A8BBA
:1004C000CE014196B0C02D843E844F8458886D88FB
:1004D0007E888F88988CEE24FF248701AA24BB2471
:1004E000650140E050E060E070E0E0E0F0E0C10174
:1004F00081709070892BE9F0E60CF71C081D191D1E
:100500009A01AB012A0D3B1D4C1D5D1D80E090E062
:10051000A0E0B0E0E614F7040805190520F481E036
:1005200090E0A0E0B0E0BA01A901480F591F6A1F8E
:100530007B1FAA0CBB1CCC1CDD1C97FE08C081E0F5
:1005400090E0A0E0B0E0A82AB92ACA2ADB2A3196B6
:10055000E032F10549F0660C771C881C991C569412
:10056000479437942794C3CFFA85EA892B893C892D
:100570008B859C85280F391F2E5F3F4F17C0CA01FE
:1005800081709070892B61F016950795F794E79428
:1005900080E090E0A0E0B0E8E82AF92A0A2B1B2BC3
:1005A00076956795579547952F5F3F4F77FDE7CF36
:1005B0000CC0440F551F661F771F17FD4160EE0CDE
:1005C000FF1C001F111F21503040403090E05907A0
:1005D00090E0690790E4790760F32B8F3C8FDB0193
:1005E000CA018F779070A070B07080349105A1051A
:1005F000B10561F447FD0AC0E114F10401051105DC
:1006000029F0405C5F4F6F4F7F4F40781A8EFE1786
:1006100011F081E08A8F4D8F5E8F6F8F78A383E01A
:10062000898FCE0149960E94FD03A096E2E10C94C9
:10063000DB1DA8E1B0E0EFE1F3E00C94CB1D698392
:100640007A838B839C832D833E834F83588789E0F5
:10065000E82EF12CEC0EFD1ECE010196B7010E9492
:10066000D2048E010F5E1F4FCE010596B8010E9485
:10067000D2048985823040F08989823028F0C70110
:10068000B8010E944A0501C08FEF6896E6E00C941D
:10069000E71DA8E1B0E0EFE4F3E00C94CB1D698323
:1006A0007A838B839C832D833E834F83588789E095
:1006B000E82EF12CEC0EFD1ECE010196B7010E9432
:1006C000D2048E010F5E1F4FCE010596B8010E9425
:1006D000D2048985823040F08989823028F0C701B0
:1006E000B8010E944A0501C08FEF6896E6E00C94BD
:1006F000E71DA8E1B0E0EFE7F3E00C94CB1D6983C0
:100700007A838B839C832D833E834F83588789E034
:10071000E82EF12CEC0EFD1ECE010196B7010E94D1
:10072000D2048E010F5E1F4FCE010596B8010E94C4
:10073000D2048985823040F08989823028F0C7014F
:10074000B8010E944A0501C081E06896E6E00C9479
:10075000E71DACE0B0E0EFEAF3E00C94CF1D698355
:100760007A838B839C83CE010196BE016B5F7F4FA2
:100770000E94D2048D81823061F1823050F1843048
:1007800021F48E81882351F12EC02F81388537FDC9
:1007900020C06E812F3131051CF06623F9F023C093
:1007A0008EE190E0821B930B29853A854B855C8511
:1007B00004C056954795379527958A95D2F76623B5
:1007C000B1F050954095309521953F4F4F4F5F4F79
:1007D0000EC020E030E040E050E009C02FEF3FEFD6
:1007E0004FEF5FE704C020E030E040E050E8B9019F
:1007F000CA012C96E2E00C94EB1DDF92EF92FF927F
:100800000F931F93FC01E480F58006811781D1804E
:100810008081823048F480E090E0A0E1B0E0E82AF6
:10082000F92A0A2B1B2BA5C0843009F49FC0823003
:1008300021F4EE24FF24870105C0E114F104010531
:10084000110519F4E0E0F0E096C0628173819FEF3A
:10085000623879070CF05BC022E83FEF261B370BAC
:100860002A3131052CF020E030E040E050E02AC091
:10087000B801A701022E04C0769567955795479554
:100880000A94D2F781E090E0A0E0B0E004C0880FC5
:10089000991FAA1FBB1F2A95D2F70197A109B10979
:1008A0008E219F21A023B1230097A105B10521F03E
:1008B00081E090E0A0E0B0E09A01AB01282B392B59
:1008C0004A2B5B2BDA01C9018F779070A070B07052
:1008D00080349105A105B10539F427FF09C0205CDA
:1008E0003F4F4F4F5F4F04C0215C3F4F4F4F5F4F13
:1008F000E0E0F0E02030A0E03A07A0E04A07A0E402
:100900005A0710F0E1E0F0E079018A0127C0603871
:10091000710564F5FB01E158FF4FD801C7018F77DE
:100920009070A070B07080349105A105B10539F4C4
:10093000E7FE0DC080E490E0A0E0B0E004C08FE3EB
:1009400090E0A0E0B0E0E80EF91E0A1F1B1F17FFA1
:1009500005C016950795F794E794319687E01695AC
:100960000795F794E7948A95D1F705C0EE24FF2404
:100970008701EFEFF0E06E2F679566276795902F60
:100980009F77D794DD24D7948E2F8695492F462BB9
:10099000582F5D29B701CA011F910F91FF90EF9069
:1009A000DF900895FC01DB01408151812281622F9B
:1009B0006F7770E0221F2227221F9381892F880FD3
:1009C000822B282F30E0991F9927991F11969C930D
:1009D000119721153105A9F54115510561057105DD
:1009E00011F482E037C082E89FEF13969C938E93B8
:1009F00012979A01AB0167E0220F331F441F551F66
:100A00006A95D1F783E08C930DC0220F331F441FEA
:100A1000551F12968D919C911397019713969C9355
:100A20008E931297203080E0380780E0480780E4FA
:100A3000580758F314962D933D934D935C93179755
:100A400008952F3F310579F4411551056105710570
:100A500019F484E08C93089564FF03C081E08C93C3
:100A600012C01C9210C02F57304013963C932E9307
:100A7000129783E08C9387E0440F551F661F771F02
:100A80008A95D1F7706414964D935D936D937C9322
:100A9000179708951F93DC01FB019C91923008F495
:100AA00047C08081823008F443C0943051F41196DD
:100AB0001C91843099F58181682F70E0611B710968
:100AC0003FC0843021F0923031F48230B9F181811D
:100AD000882389F12DC011961C9111978230F1F075
:100AE00081811817D9F412962D913C911397828128
:100AF00093818217930794F028173907BCF0149656
:100B00008D919D910D90BC91A02D248135814681C0
:100B10005781281739074A075B0718F4112341F05A
:100B20000AC082179307A407B50740F4112319F0F0
:100B300061E070E005C06FEF7FEF02C060E070E041
:100B4000CB011F910895DF93CF93CDB7DEB72797E1
:100B50000FB6F894DEBF0FBECDBF89836A834B8387
:100B60008B81813009F06FC08981282F30E03F836D
:100B70002E838E819F818130910549F12E813F81A5
:100B8000223031052CF48E819F81009761F0D2C014
:100B90002E813F812230310571F18E819F8183301A
:100BA0009105E9F1C7C0AAE3B0E0EAE3F0E0808193
:100BB000482F8A81282F30E081E090E0022E02C089
:100BC000880F991F0A94E2F7842B8C93B3C0A7E394
:100BD000B0E0E7E3F0E08081482F8A81282F30E001
:100BE00081E090E0022E02C0880F991F0A94E2F77C
:100BF000842B8C939FC0A4E3B0E0E4E3F0E0808119
:100C0000482F8A81282F30E081E090E0022E02C038
:100C1000880F991F0A94E2F7842B8C938BC0A1E371
:100C2000B0E0E1E3F0E08081482F8A81282F30E0B6
:100C300081E090E0022E02C0880F991F0A94E2F72B
:100C4000842B8C9377C08B81882309F073C08981B2
:100C5000282F30E03D832C838C819D81813091054C
:100C600059F12C813D81223031052CF48C819D81FC
:100C7000009769F05FC02C813D812230310589F1F8
:100C80008C819D818330910509F440C053C0AAE353
:100C9000B0E0EAE3F0E08081482F8A81282F30E03D
:100CA00081E090E0022E02C0880F991F0A94E2F7BB
:100CB000809584238C933EC0A7E3B0E0E7E3F0E0A7
:100CC0008081482F8A81282F30E081E090E0022E39
:100CD00002C0880F991F0A94E2F7809584238C93B1
:100CE00029C0A4E3B0E0E4E3F0E08081482F8A81EA
:100CF000282F30E081E090E0022E02C0880F991F7B
:100D00000A94E2F7809584238C9314C0A1E3B0E0A9
:100D1000E1E3F0E08081482F8A81282F30E081E0F4
:100D200090E0022E02C0880F991F0A94E2F7809586
:100D300084238C9327960FB6F894DEBF0FBECDBFE9
:100D4000CF91DF910895DF93CF93CDB7DEB727978B
:100D50000FB6F894DEBF0FBECDBF89836A834B8385
:100D60008B81813009F06FC08981282F30E03F836B
:100D70002E838E819F818130910549F12E813F81A3
:100D8000223031052CF48E819F81009761F0D2C012
:100D90002E813F812230310571F18E819F81833018
:100DA0009105E9F1C7C0ABE3B0E0EBE3F0E080818F
:100DB000482F8A81282F30E081E090E0022E02C087
:100DC000880F991F0A94E2F7842B8C93B3C0A8E391
:100DD000B0E0E8E3F0E08081482F8A81282F30E0FE
:100DE00081E090E0022E02C0880F991F0A94E2F77A
:100DF000842B8C939FC0A5E3B0E0E5E3F0E0808115
:100E0000482F8A81282F30E081E090E0022E02C036
:100E1000880F991F0A94E2F7842B8C938BC0A2E36E
:100E2000B0E0E2E3F0E08081482F8A81282F30E0B3
:100E300081E090E0022E02C0880F991F0A94E2F729
:100E4000842B8C9377C08B81882309F073C08981B0
:100E5000282F30E03D832C838C819D81813091054A
:100E600059F12C813D81223031052CF48C819D81FA
:100E7000009769F05FC02C813D812230310589F1F6
:100E80008C819D818330910509F440C053C0ABE350
:100E9000B0E0EBE3F0E08081482F8A81282F30E03A
:100EA00081E090E0022E02C0880F991F0A94E2F7B9
:100EB000809584238C933EC0A8E3B0E0E8E3F0E0A3
:100EC0008081482F8A81282F30E081E090E0022E37
:100ED00002C0880F991F0A94E2F7809584238C93AF
:100EE00029C0A5E3B0E0E5E3F0E08081482F8A81E6
:100EF000282F30E081E090E0022E02C0880F991F79
:100F00000A94E2F7809584238C9314C0A2E3B0E0A6
:100F1000E2E3F0E08081482F8A81282F30E081E0F1
:100F200090E0022E02C0880F991F0A94E2F7809584
:100F300084238C9327960FB6F894DEBF0FBECDBFE7
:100F4000CF91DF910895DF93CF9300D000D00F921F
:100F5000CDB7DEB78A836B8319828A81282F30E070
:100F60003D832C834C815D814130510541F18C8161
:100F70009D818230910534F42C813D81211531050C
:100F800061F052C04C815D814230510551F18C813C
:100F90009D8183309105B9F147C0E9E3F0E080819C
:100FA000282F30E08B81882F90E0A90102C0559551
:100FB00047958A95E2F7CA018170898335C0E6E3D7
:100FC000F0E08081282F30E08B81882F90E0A9010C
:100FD00002C0559547958A95E2F7CA0181708983C9
:100FE00023C0E3E3F0E08081282F30E08B81882F5D
:100FF00090E0A90102C0559547958A95E2F7CA018C
:101000008170898311C0E0E3F0E08081282F30E017
:101010008B81882F90E0A90102C0559547958A954C
:10102000E2F7CA018170898389810F900F900F9038
:101030000F900F90CF91DF910895DF93CF9300D061
:1010400000D0CDB7DEB789836A838981282F30E04D
:101050003C832B838B819C8181309105D1F02B8146
:101060003C81223031052CF48B819C81009761F00A
:101070001EC02B813C812230310581F08B819C8107
:101080008330910581F013C0EBE3F0E08A81808327
:101090000EC0E8E3F0E08A81808309C0E5E3F0E078
:1010A0008A81808304C0E2E3F0E08A8180830F902C
:1010B0000F900F900F90CF91DF910895DF93CF9312
:1010C00000D000D0CDB7DEB789836A838981282F0D
:1010D00030E03C832B838B819C8181309105D1F062
:1010E0002B813C81223031052CF48B819C8100972F
:1010F00061F01EC02B813C812230310581F08B8153
:101100009C818330910581F013C0EAE3F0E08A818D
:1011100080830EC0E7E3F0E08A81808309C0E4E3C6
:10112000F0E08A81808304C0E1E3F0E08A8180837B
:101130000F900F900F900F90CF91DF910895DF9354
:10114000CF9300D000D0CDB7DEB789836A83898181
:10115000282F30E03C832B838B819C81813091054B
:1011600049F12B813C81223031052CF48B819C810B
:10117000009761F05AC02B813C812230310571F11A
:101180008B819C8183309105E9F14FC0ABE3B0E0E6
:10119000EBE3F0E08081482F8A81282F30E081E066
:1011A00090E0022E02C0880F991F0A94E2F784276C
:1011B0008C933BC0A8E3B0E0E8E3F0E08081482FE7
:1011C0008A81282F30E081E090E0022E02C0880F53
:1011D000991F0A94E2F784278C9327C0A5E3B0E017
:1011E000E5E3F0E08081482F8A81282F30E081E01C
:1011F00090E0022E02C0880F991F0A94E2F784271C
:101200008C9313C0A2E3B0E0E2E3F0E08081482FCA
:101210008A81282F30E081E090E0022E02C0880F02
:10122000991F0A94E2F784278C930F900F900F90E8
:101230000F90CF91DF910895DF93CF93CDB7DEB7B5
:1012400061970FB6F894DEBF0FBECDBF988B8F8726
:10125000698B0E9443138F859889892F9927806A0B
:101260000E9472138F850E94D2130E9443138989B2
:101270000E94D2130E945D1380E090E0A0E2B1E4EE
:101280008B879C87AD87BE876B857C858D859E858A
:1012900020E030E04AEF54E40E941F02DC01CB0161
:1012A0008F839887A987BA876F81788589859A8582
:1012B00020E030E040E85FE30E94790388232CF4CB
:1012C00081E090E09E838D833FC06F817885898522
:1012D0009A8520E03FEF4FE757E40E941903181664
:1012E0004CF56B857C858D859E8520E030E040E265
:1012F00051E40E941F02DC01CB01BC01CD010E9420
:101300004900DC01CB019E838D830FC088EC90E007
:101310009C838B838B819C810197F1F79C838B83CA
:101320008D819E8101979E838D838D819E81009703
:1013300069F714C06F81788589859A850E94490074
:10134000DC01CB019E838D838D819E819A8389836D
:1013500089819A810197F1F79A83898361960FB603
:10136000F894DEBF0FBECDBFCF91DF910895DF931C
:10137000CF9300D00F92CDB7DEB79B838A830E94B4
:1013800043138A819B81892F9927806A0E94721357
:101390008A810E94D2130E9443138A819B81892FE4
:1013A0009927806A0E94A2130E94181489830E94C0
:1013B0005D1389810F900F900F90CF91DF91089569
:1013C0000F931F93DF93CF93CDB7DEB7CC5AD040A6
:1013D0000FB6F894DEBF0FBECDBF0E94CF160E949D
:1013E0002E140E940613FE01EB55FF4F80E090E0A3
:1013F000A8ECB2E480839183A283B3838E010F555E
:101400001F4FFE01EB55FF4F6081718182819381F7
:1014100020E030E04AEF54E40E941F02DC01CB01DF
:10142000F80180839183A283B383FE01EF55FF4FC0
:10143000608171818281938120E030E040E85FE348
:101440000E947903882344F4FE01E156FF4F81E0B6
:1014500090E09183808364C0FE01EF55FF4F60816F
:1014600071818281938120E03FEF4FE757E40E9432
:10147000190318160CF043C0FE01EB55FF4F6081B5
:1014800071818281938120E030E040E251E40E944A
:101490001F02DC01CB018E0101561F4FBC01CD01A3
:1014A0000E944900DC01CB01F801918380831FC0B9
:1014B000FE01E356FF4F88EC90E091838083FE01AC
:1014C000E356FF4F808191810197F1F7FE01E356CA
:1014D000FF4F91838083DE01A156BF4FFE01E1568D
:1014E000FF4F80819181019711969C938E93FE010D
:1014F000E156FF4F808191810097D1F627C08E0180
:1015000001561F4FFE01EF55FF4F608171818281AF
:1015100093810E944900DC01CB01F8019183808313
:10152000DE01A556BF4FFE01E156FF4F808191813C
:101530008D939C93FE01E556FF4F80819181019729
:10154000F1F7FE01E556FF4F918380838FEF809383
:101550001C0180913601909137010E94B709FE016C
:10156000E455FF4F8083FE01E455FF4F80818130B9
:1015700009F4BAC580E690E061E070E041E050E037
:101580000E945A1A0E943D1480931C0180911C01F4
:101590008F3FC1F3809139018F5F80933901809132
:1015A0001C01863209F4E3C080911C01882F90E071
:1015B000A0E0B0E020913901BC01CD0142E00E94E1
:1015C000F719FE01E956FF4F80E090E0A8E4B2E48D
:1015D00080839183A283B3838E010D561F4FFE013A
:1015E000E956FF4F608171818281938120E030E074
:1015F0004AEF54E40E941F02DC01CB01F801808312
:101600009183A283B383FE01ED56FF4F6081718108
:101610008281938120E030E040E85FE30E9479031B
:10162000882344F4FE01EF56FF4F81E090E0918360
:10163000808364C0FE01ED56FF4F6081718182811D
:10164000938120E03FEF4FE757E40E9419031816FB
:101650000CF043C0FE01E956FF4F60817181828129
:10166000938120E030E040E251E40E941F02DC015F
:10167000CB018E010F561F4FBC01CD010E944900C6
:10168000DC01CB01F801918380831FC0FE01E1578B
:10169000FF4F88EC90E091838083FE01E157FF4F7C
:1016A000808191810197F1F7FE01E157FF4F91830E
:1016B0008083DE01AF56BF4FFE01EF56FF4F8081A2
:1016C0009181019711969C938E93FE01EF56FF4FE7
:1016D000808191810097D1F627C08E010F561F4F50
:1016E000FE01ED56FF4F60817181828193810E94DE
:1016F0004900DC01CB01F80191838083DE01A3570F
:10170000BF4FFE01EF56FF4F808191818D939C93D7
:10171000FE01E357FF4F808191810197F1F7FE01B0
:10172000E357FF4F91838083909139018AE262E011
:10173000492F0E94441A80913901882F90E020910E
:101740001C01FC01E55CFE4F208380913901882F4C
:1017500090E00197880F991FFC01EC5EFE4F80819D
:10176000918120911C01622F0E941C090BCF809156
:1017700036019091370161E00E941C090E94C61851
:101780008DE690E061E070E041E050E00E945A1A7E
:10179000FE01E757FF4F80E090E0A8E4B3E48083C8
:1017A0009183A283B3838E010B571F4FFE01E7572E
:1017B000FF4F608171818281938120E030E04AEFA8
:1017C00054E40E941F02DC01CB01F8018083918365
:1017D000A283B383FE01EB57FF4F60817181828149
:1017E000938120E030E040E85FE30E9479038823A2
:1017F00044F4FE01ED57FF4F81E090E09183808338
:1018000064C0FE01EB57FF4F60817181828193813B
:1018100020E03FEF4FE757E40E94190318160CF041
:1018200043C0FE01E757FF4F608171818281938140
:1018300020E030E040E251E40E941F02DC01CB01D5
:101840008E010D571F4FBC01CD010E944900DC01E4
:10185000CB01F801918380831FC0FE01EF57FF4F3A
:1018600088EC90E091838083FE01EF57FF4F8081E9
:1018700091810197F1F7FE01EF57FF4F918380832C
:10188000DE01AD57BF4FFE01ED57FF4F80819181C3
:10189000019711969C938E93FE01ED57FF4F808127
:1018A00091810097D1F627C08E010D571F4FFE0181
:1018B000EB57FF4F60817181828193810E944900C3
:1018C000DC01CB01F80191838083DE01A158BF4F79
:1018D000FE01ED57FF4F808191818D939C93FE0116
:1018E000E158FF4F808191810197F1F7FE01E158A6
:1018F000FF4F918380830E94C618FE01E558FF4F79
:1019000080E090E0A8ECB2E480839183A283B3836B
:101910008E0109581F4FFE01E558FF4F608171810C
:101920008281938120E030E04AEF54E40E941F025C
:10193000DC01CB01F80180839183A283B383FE0194
:10194000E958FF4F608171818281938120E030E00E
:1019500040E85FE30E947903882344F4FE01EB58DA
:10196000FF4F81E090E09183808364C0FE01E958DD
:10197000FF4F608171818281938120E03FEF4FE7CB
:1019800057E40E94190318160CF043C0FE01E558F5
:10199000FF4F608171818281938120E030E040E2DD
:1019A00051E40E941F02DC01CB018E010B581F4F36
:1019B000BC01CD010E944900DC01CB01F8019183FB
:1019C00080831FC0FE01ED58FF4F88EC90E09183AB
:1019D0008083FE01ED58FF4F808191810197F1F7DF
:1019E000FE01ED58FF4F91838083DE01AB58BF4F5E
:1019F000FE01EB58FF4F80819181019711969C93D6
:101A00008E93FE01EB58FF4F808191810097D1F6B4
:101A100027C08E010B581F4FFE01E958FF4F608110
:101A20007181828193810E944900DC01CB01F80120
:101A300091838083DE01AF58BF4FFE01EB58FF4F0B
:101A4000808191818D939C93FE01EF58FF4F80819F
:101A500091810197F1F7FE01EF58FF4F9183808349
:101A60008CE790E061E070E041E050E00E945A1A9B
:101A70008FEF80931C01E3C00E943D1480931C01F2
:101A800080911C018F3FC1F380913A018F5F809359
:101A90003A0180911C01863209F4D6C080911C0164
:101AA000882F90E0A0E0B0E020913A01BC01CD0188
:101AB00042E00E94F719FE01E359FF4F80E090E0F9
:101AC000A8E4B2E480839183A283B3838E01075993
:101AD0001F4FFE01E359FF4F608171818281938125
:101AE00020E030E04AEF54E40E941F02DC01CB0109
:101AF000F80180839183A283B383FE01E759FF4FEE
:101B0000608171818281938120E030E040E85FE371
:101B10000E947903882344F4FE01E959FF4F81E0D4
:101B200090E09183808364C0FE01E759FF4F60819C
:101B300071818281938120E03FEF4FE757E40E945B
:101B4000190318160CF043C0FE01E359FF4F6081E2
:101B500071818281938120E030E040E251E40E9473
:101B60001F02DC01CB018E0109591F4FBC01CD01C1
:101B70000E944900DC01CB01F801918380831FC0E2
:101B8000FE01EB59FF4F88EC90E091838083FE01CA
:101B9000EB59FF4F808191810197F1F7FE01EB59DD
:101BA000FF4F91838083DE01A959BF4FFE01E959A0
:101BB000FF4F80819181019711969C938E93FE0136
:101BC000E959FF4F808191810097D1F627C08E019E
:101BD00009591F4FFE01E759FF4F608171818281D2
:101BE00093810E944900DC01CB01F801918380833D
:101BF000DE01AD59BF4FFE01E959FF4F8081918150
:101C00008D939C93FE01ED59FF4F80819181019747
:101C1000F1F7FE01ED59FF4F9183808390913A01D6
:101C20008AE262E0492F0E94441A80913A01882F8B
:101C300090E020911C01FC01E95BFE4F2083809124
:101C40001C01863209F018CF409139018BE391E0F5
:101C500027E431E0B9010E942815882309F4A2C1C4
:101C60000E94C6188BE890E061E070E041E050E02F
:101C70000E945A1AFE01E555FF4F1082C7C0FE01AF
:101C8000E555FF4F8081982F9F5F8EE262E0492FDC
:101C90000E94441AFE01E15AFF4F80E090E0A8E460
:101CA000B2E480839183A283B3838E01055A1F4FD0
:101CB000FE01E15AFF4F608171818281938120E0B2
:101CC00030E04AEF54E40E941F02DC01CB01F8012E
:101CD00080839183A283B383FE01E55AFF4F608125
:101CE00071818281938120E030E040E85FE30E94CF
:101CF0007903882344F4FE01E75AFF4F81E090E026
:101D00009183808364C0FE01E55AFF4F6081718139
:101D10008281938120E03FEF4FE757E40E9419034F
:101D200018160CF043C0FE01E15AFF4F608171812B
:101D30008281938120E030E040E251E40E941F0262
:101D4000DC01CB018E01075A1F4FBC01CD010E945F
:101D50004900DC01CB01F801918380831FC0FE01A3
:101D6000E95AFF4F88EC90E091838083FE01E95AA5
:101D7000FF4F808191810197F1F7FE01E95AFF4FF2
:101D800091838083DE01A75ABF4FFE01E75AFF4FC0
:101D900080819181019711969C938E93FE01E75A61
:101DA000FF4F808191810097D1F627C08E01075A9D
:101DB0001F4FFE01E55AFF4F60817181828193813F
:101DC0000E944900DC01CB01F80191838083DE0190
:101DD000AB5ABF4FFE01E75AFF4F808191818D932F
:101DE0009C93FE01EB5AFF4F808191810197F1F79F
:101DF000FE01EB5AFF4F91838083DE01A555BF4F53
:101E0000FE01E555FF4F80818F5F8C93FE01E55504
:101E1000FF4F8081863008F432CFFE01EF5AFF4F2A
:101E200080E090E0A8E4B2E480839183A283B3834E
:101E30008E01035B1F4FFE01EF5AFF4F60817181DE
:101E40008281938120E030E04AEF54E40E941F0237
:101E5000DC01CB01F80180839183A283B383FE016F
:101E6000E35BFF4F608171818281938120E030E0EC
:101E700040E85FE30E947903882344F4FE01E55BB8
:101E8000FF4F81E090E09183808364C0FE01E35BBB
:101E9000FF4F608171818281938120E03FEF4FE7A6
:101EA00057E40E94190318160CF043C0FE01EF5AC4
:101EB000FF4F608171818281938120E030E040E2B8
:101EC00051E40E941F02DC01CB018E01055B1F4F14
:101ED000BC01CD010E944900DC01CB01F8019183D6
:101EE00080831FC0FE01E75BFF4F88EC90E0918389
:101EF0008083FE01E75BFF4F808191810197F1F7BD
:101F0000FE01E75BFF4F91838083DE01A55BBF4F3E
:101F1000FE01E55BFF4F80819181019711969C93B3
:101F20008E93FE01E55BFF4F808191810097D1F692
:101F300027C08E01055B1F4FFE01E35BFF4F6081F1
:101F40007181828193810E944900DC01CB01F801FB
:101F500091838083DE01A95BBF4FFE01E55BFF4FEC
:101F6000808191818D939C93FE01E95BFF4F80817D
:101F700091810197F1F7FE01E95BFF4F9183808327
:101F80000E94C6188BE990E061E070E041E050E00B
:101F90000E945A1A0E94811A80E063E041E00E9488
:101FA000A30628C30E94C61885EA90E061E070E0AD
:101FB00041E050E00E945A1AFE01ED5BFF4F80E0C5
:101FC00090E0A8E4B3E480839183A283B3838E017D
:101FD000015C1F4FFE01ED5BFF4F608171818281CB
:101FE000938120E030E04AEF54E40E941F02DC01BC
:101FF000CB01F80180839183A283B383FE01FF9616
:10200000608171818281938120E030E040E85FE36C
:102010000E94790388232CF481E090E09EAF8DAF7D
:1020200046C0FE01FF96608171818281938120E02C
:102030003FEF4FE757E40E941903181664F5FE01BD
:10204000ED5BFF4F608171818281938120E030E000
:1020500040E251E40E941F02DC01CB01BC01CD0132
:102060000E944900DC01CB019EAF8DAF0FC088EC10
:1020700090E09CAF8BAF8BAD9CAD0197F1F79CAF1F
:102080008BAF8DAD9EAD01979EAF8DAF8DAD9EADEB
:10209000009769F716C0FE01FF9660817181828109
:1020A00093810E944900DC01CB019EAF8DAF8DADC5
:1020B0009EAD9AAF89AF89AD9AAD0197F1F79AAF0E
:1020C00089AF0E94C61886EB90E061E070E041E0C5
:1020D00050E00E945A1A83EC90E062E070E041E028
:1020E00050E00E945A1A86C20E94C61880E090E012
:1020F000A8E4B3E48DAB9EABAFABB8AF6DA97EA93E
:102100008FA998AD20E030E04AEF54E40E941F020E
:10211000DC01CB0189AB9AABABABBCAB69A97AA9AB
:102120008BA99CA920E030E040E85FE30E9479039E
:1021300088232CF481E090E098AB8FA73FC069A979
:102140007AA98BA99CA920E03FEF4FE757E40E94B2
:10215000190318164CF56DA97EA98FA998AD20E03A
:1021600030E040E251E40E941F02DC01CB01BC01DF
:10217000CD010E944900DC01CB0198AB8FA70FC0B5
:1021800088EC90E09EA78DA78DA59EA50197F1F7FD
:102190009EA78DA78FA598A9019798AB8FA78FA50C
:1021A00098A9009769F714C069A97AA98BA99CA975
:1021B0000E944900DC01CB0198AB8FA78FA598A99D
:1021C0009CA78BA78BA59CA50197F1F79CA78BA734
:1021D00080ED90E061E070E041E050E00E945A1A2A
:1021E0008FEF80931C01A2C00E943D1480931C01BC
:1021F00080911C018F3FC1F380913A018F5F8093E2
:102200003A0180911C01863209F495C080911C012D
:10221000882F90E0A0E0B0E020913A01BC01CD0110
:1022200042E00E94F71980E090E0A8ECB2E48FA3AE
:1022300098A7A9A7BAA76FA178A589A59AA520E014
:1022400030E04AEF54E40E941F02DC01CB018BA373
:102250009CA3ADA3BEA36BA17CA18DA19EA120E0F8
:1022600030E040E85FE30E94790388232CF481E0AA
:1022700090E09AA389A33FC06BA17CA18DA19EA1F0
:1022800020E03FEF4FE757E40E94190318164CF582
:102290006FA178A589A59AA520E030E040E251E43D
:1022A0000E941F02DC01CB01BC01CD010E9449004C
:1022B000DC01CB019AA389A30FC088EC90E098A31E
:1022C0008F8F8F8D98A10197F1F798A38F8F89A198
:1022D0009AA101979AA389A389A19AA1009769F766
:1022E00014C06BA17CA18DA19EA10E944900DC01BC
:1022F000CB019AA389A389A19AA19E8F8D8F8D8DE1
:102300009E8D0197F1F79E8F8D8F90913A018AE211
:1023100062E0492F0E94441A80913A01882F90E090
:1023200020911C01FC01E95BFE4F208380911C0180
:10233000863209F059CFFE01E655FF4F10824CC19D
:10234000FE01E655FF4F8081882F90E0FC01E95B9C
:10235000FE4F1081FE01E655FF4F8081882F90E0EF
:10236000880F991FFC01EC5EFE4F808191810E94D5
:10237000B709181749F4DE01A655BF4FFE01E6550F
:10238000FF4F80818F5F8C93FE01E655FF4F808168
:10239000843009F018C10E94C6188BE890E061E013
:1023A00070E041E050E00E945A1AFE01E755FF4FED
:1023B000108286C0FE01E755FF4F8081982F925F03
:1023C0008EE261E0492F0E94441A80E090E0AAEF7B
:1023D000B3E4898F9A8FAB8FBC8F698D7A8D8B8D8B
:1023E0009C8D20E030E04AEF54E40E941F02DC01A3
:1023F000CB018D8B9E8BAF8BB88F6D897E898F893A
:10240000988D20E030E040E85FE30E947903882364
:102410002CF481E090E09C8B8B8B3FC06D897E8992
:102420008F89988D20E03FEF4FE757E40E94190312
:1024300018164CF5698D7A8D8B8D9C8D20E030E0DF
:1024400040E251E40E941F02DC01CB01BC01CD013E
:102450000E944900DC01CB019C8B8B8B0FC088EC68
:1024600090E09A8B898B89899A890197F1F79A8BE9
:10247000898B8B899C8901979C8B8B8B8B899C8901
:10248000009769F714C06D897E898F89988D0E94A5
:102490004900DC01CB019C8B8B8B8B899C89988BB1
:1024A0008F878F8598890197F1F7988B8F87DE0149
:1024B000A755BF4FFE01E755FF4F80818F5F8C937B
:1024C000FE01E755FF4F8081843008F473CF80E030
:1024D00090E0A8E4B3E48B879C87AD87BE876B85CB
:1024E0007C858D859E8520E030E04AEF54E40E9493
:1024F0001F02DC01CB018F839887A987BA876F8180
:10250000788589859A8520E030E040E85FE30E9485
:10251000790388232CF481E090E09E838D833FC073
:102520006F81788589859A8520E03FEF4FE757E4F2
:102530000E94190318164CF56B857C858D859E8548
:1025400020E030E040E251E40E941F02DC01CB01B8
:10255000BC01CD010E944900DC01CB019E838D832B
:102560000FC088EC90E09C838B838B819C810197CA
:10257000F1F79C838B838D819E8101979E838D8350
:102580008D819E81009769F714C06F817885898558
:102590009A850E944900DC01CB019E838D838D8149
:1025A0009E819A83898389819A810197F1F79A8321
:1025B00089830E94C6188BE990E061E070E041E0F9
:1025C00050E00E945A1ADE01A655BF4FFE01E655A3
:1025D000FF4F80818F5F8C93FE01E655FF4F808116
:1025E000843008F4ADCE0E94811A80E063E041E0BF
:1025F0000E94A306C455DF4F0FB6F894DEBF0FBE8E
:10260000CDBFCF91DF911F910F910895DF93CF93AD
:10261000CDB7DEB7A1E2B0E0E1E2F0E080818E7FED
:102620008C93A1E2B0E0E1E2F0E080818D7F8C93B9
:10263000E0E2F0E082E08083A6E5B0E0E6E5F0E0ED
:10264000808184608C93CF91DF910895DF93CF9345
:102650000F92CDB7DEB78983A6E5B0E0E6E5F0E0FE
:10266000808180648C93E2E2F0E08981880F80832E
:10267000A6E5B0E0E6E5F0E0808184608C930F9001
:10268000CF91DF910895DF93CF93CDB7DEB7A6E565
:10269000B0E0E6E5F0E0808180688C93A6E5B0E0EC
:1026A000E6E5F0E0808180628C93E6E5F0E08081F1
:1026B0008823DCF7CF91DF910895DF93CF93CDB7D7
:1026C000DEB7A6E5B0E0E6E5F0E0808180688C93B7
:1026D000A6E5B0E0E6E5F0E0808180618C93CF91E3
:1026E000DF910895DF93CF930F92CDB7DEB7898343
:1026F000E3E2F0E08981880F8083A3E2B0E0E3E2C7
:10270000F0E080818E7F8C93A6E5B0E0E6E5F0E016
:1027100080818F7D8C93A6E5B0E0E6E5F0E08081D6
:1027200080688C93A6E5B0E0E6E5F0E08081846007
:102730008C93E6E5F0E080818823DCF70F90CF9161
:10274000DF910895DF93CF930F92CDB7DEB78983E2
:10275000E3E2F0E08981880F8083A3E2B0E0E3E266
:10276000F0E0808181608C93A6E5B0E0E6E5F0E0E2
:1027700080818F7D8C93A6E5B0E0E6E5F0E0808176
:1027800080688C93A6E5B0E0E6E5F0E080818460A7
:102790008C93E6E5F0E080818823DCF70F90CF9101
:1027A000DF910895DF93CF930F92CDB7DEB7898382
:1027B000E3E2F0E089818083A6E5B0E0E6E5F0E0C1
:1027C000808180688C93A6E5B0E0E6E5F0E080814A
:1027D00084608C93E6E5F0E080818823DCF70F903D
:1027E000CF91DF910895DF93CF93CDB7DEB7E1E2CC
:1027F000F0E08081882F90E0887F9070803691058E
:10280000B1F7A6E5B0E0E6E5F0E0808180688C9362
:10281000E1E2F0E08081882F90E0887F907080383E
:102820009105B1F7E3E2F0E08081CF91DF91089567
:10283000DF93CF93CDB7DEB7A6E5B0E0E6E5F0E0F5
:10284000808180688C93E6E5F0E080818823DCF766
:10285000E3E2F0E08081CF91DF910895DF93CF93A1
:10286000CDB7DEB781E06FE00E945E0881E06FEFD8
:102870000E941D08CF91DF910895DF93CF93CDB7CC
:10288000DEB763970FB6F894DEBF0FBECDBF188AD0
:102890008FEF8F871B8ACEC08B89882F90E0FC0139
:1028A000E35DFE4F908181E0692F40E00E94A30626
:1028B0001A8AAAC08A89882F90E0FC01EF5CFE4F3B
:1028C000908181E0692F0E94A307898B89898823E1
:1028D00009F097C080E090E0A0EAB1E48B879C8784
:1028E000AD87BE876B857C858D859E8520E030E039
:1028F0004AEF54E40E941F02DC01CB018F839887CA
:10290000A987BA876F81788589859A8520E030E02C
:1029100040E85FE30E94790388232CF481E090E093
:102920009E838D833FC06F81788589859A8520E05D
:102930003FEF4FE757E40E94190318164CF56B85DB
:102940007C858D859E8520E030E040E251E40E9448
:102950001F02DC01CB01BC01CD010E944900DC015A
:10296000CB019E838D830FC088EC90E09C838B838A
:102970008B819C810197F1F79C838B838D819E8154
:1029800001979E838D838D819E81009769F721C079
:102990006F81788589859A850E944900DC01CB0189
:1029A0009E838D838D819E819A83898389819A817B
:1029B0000197F1F79A8389830CC08A89882F90E068
:1029C000FC01EF5CFE4F908181E0692F0E94A3071C
:1029D000898B8989882389F38B89482F50E08A89DC
:1029E000282F30E0CA01880F991F880F991F820F86
:1029F000931FFC01E35EFE4F80818F8781E0888B0F
:102A000007C08A898F5F8A8B8A89843008F452CF05
:102A10008B89882F90E0FC01E35DFE4F908181E07F
:102A2000692F41E00E94A3068889813039F08B89A3
:102A30008F5F8B8B8B89843008F42ECF8F856396C4
:102A40000FB6F894DEBF0FBECDBFCF91DF910895D2
:102A5000DF93CF93CDB7DEB728970FB6F894DEBFDC
:102A60000FBECDBF9C838B837E836D834F831A8281
:102A700019821AC08A81282F30E08B819C81FC0149
:102A8000E20FF31F40818A81282F30E08D819E81E3
:102A9000FC01E20FF31F8081481719F489818F5FD1
:102AA00089838A818F5F8A839A818F81981710F337
:102AB00099818F81981719F481E0888701C0188661
:102AC000888528960FB6F894DEBF0FBECDBFCF9194
:102AD000DF910895DF93CF93CDB7DEB72F970FB671
:102AE000F894DEBF0FBECDBF8F8782E065E040E087
:102AF0000E94A30682E066E040E00E94A30683E015
:102B00006F850E941D0882E067E041E00E94A306F5
:102B100080E090E0A0E8BFE38B879C87AD87BE870D
:102B20006B857C858D859E8520E030E04AEF54E4FE
:102B30000E941F02DC01CB018F839887A987BA8787
:102B40006F81788589859A8520E030E040E85FE3F1
:102B50000E94790388232CF481E090E09E838D838A
:102B60003FC06F81788589859A8520E03FEF4FE7E8
:102B700057E40E94190318164CF56B857C858D85EA
:102B80009E8520E030E040E251E40E941F02DC011B
:102B9000CB01BC01CD010E944900DC01CB019E8329
:102BA0008D830FC088EC90E09C838B838B819C810C
:102BB0000197F1F79C838B838D819E8101979E8382
:102BC0008D838D819E81009769F714C06F81788510
:102BD00089859A850E944900DC01CB019E838D8303
:102BE0008D819E819A83898389819A810197F1F7EA
:102BF0009A83898382E067E040E00E94A3062F96D3
:102C00000FB6F894DEBF0FBECDBFCF91DF91089510
:102C1000DF93CF93CDB7DEB72F970FB6F894DEBF13
:102C20000FBECDBF8F8782E065E041E00E94A30622
:102C300082E066E040E00E94A30683E06F850E9488
:102C40001D0882E067E041E00E94A30680E090E07A
:102C5000A0E8BFE38B879C87AD87BE876B857C85AB
:102C60008D859E8520E030E04AEF54E40E941F02EB
:102C7000DC01CB018F839887A987BA876F8178851C
:102C800089859A8520E030E040E85FE30E9479037F
:102C900088232CF481E090E09E838D833FC06F8178
:102CA000788589859A8520E03FEF4FE757E40E94B9
:102CB000190318164CF56B857C858D859E8520E063
:102CC00030E040E251E40E941F02DC01CB01BC0174
:102CD000CD010E944900DC01CB019E838D830FC092
:102CE00088EC90E09C838B838B819C810197F1F72A
:102CF0009C838B838D819E8101979E838D838D81A3
:102D00009E81009769F714C06F81788589859A85BF
:102D10000E944900DC01CB019E838D838D819E81C1
:102D20009A83898389819A810197F1F79A838983AC
:102D300082E067E040E00E94A3062F960FB6F89469
:102D4000DEBF0FBECDBFCF91DF910895DF93CF934C
:102D500000D00F92CDB7DEB79B838A8319820EC055
:102D60008981282F30E08A819B81FC01E20FF31FCB
:102D700080810E94081689818F5F89838981282F2D
:102D800030E08A819B81FC01E20FF31F8081882360
:102D900039F70F900F900F90CF91DF910895DF9347
:102DA000CF93CDB7DEB7E8970FB6F894DEBF0FBE6E
:102DB000CDBF83E06FEF0E945E0882E065E041E0F6
:102DC0000E94A30582E066E041E00E94A30582E044
:102DD00067E041E00E94A30580E090E0ACE0B2E44F
:102DE0008DAB9EABAFABB8AF6DA97EA98FA998ADE7
:102DF00020E030E04AEF54E40E941F02DC01CB01E6
:102E000089AB9AABABABBCAB69A97AA98BA99CA9DE
:102E100020E030E040E85FE30E94790388232CF44F
:102E200081E090E098AB8FA73FC069A97AA98BA9F0
:102E30009CA920E03FEF4FE757E40E9419031816C2
:102E40004CF56DA97EA98FA998AD20E030E040E255
:102E500051E40E941F02DC01CB01BC01CD010E94A4
:102E60004900DC01CB0198AB8FA70FC088EC90E044
:102E70009EA78DA78DA59EA50197F1F79EA78DA76B
:102E80008FA598A9019798AB8FA78FA598A90097B0
:102E900069F714C069A97AA98BA99CA90E94490065
:102EA000DC01CB0198AB8FA78FA598A99CA78BA716
:102EB0008BA59CA50197F1F79CA78BA788E30E949F
:102EC0006A1580E090E0A0E8BFE38FA398A7A9A7C8
:102ED000BAA76FA178A589A59AA520E030E04AEFAE
:102EE00054E40E941F02DC01CB018BA39CA3ADA381
:102EF000BEA36BA17CA18DA19EA120E030E040E8A3
:102F00005FE30E94790388232CF481E090E09AA388
:102F100089A33FC06BA17CA18DA19EA120E03FEFC2
:102F20004FE757E40E94190318164CF56FA178A5D6
:102F300089A59AA520E030E040E251E40E941F02FA
:102F4000DC01CB01BC01CD010E944900DC01CB01B9
:102F50009AA389A30FC088EC90E098A38F8F8F8DE0
:102F600098A10197F1F798A38F8F89A19AA1019752
:102F70009AA389A389A19AA1009769F714C06BA1AC
:102F80007CA18DA19EA10E944900DC01CB019AA3E6
:102F900089A389A19AA19E8F8D8F8D8D9E8D01977A
:102FA000F1F79E8F8D8F8FE00E946A1580E090E090
:102FB000A0E8BFE3898F9A8FAB8FBC8F698D7A8D24
:102FC0008B8D9C8D20E030E04AEF54E40E941F027C
:102FD000DC01CB018D8B9E8BAF8BB88F6D897E8989
:102FE0008F89988D20E030E040E85FE30E9479030C
:102FF00088232CF481E090E09C8B8B8B3FC06D8903
:103000007E898F89988D20E03FEF4FE757E40E943B
:10301000190318164CF5698D7A8D8B8D9C8D20E0E7
:1030200030E040E251E40E941F02DC01CB01BC0110
:10303000CD010E944900DC01CB019C8B8B8B0FC022
:1030400088EC90E09A8B898B89899A890197F1F7AE
:103050009A8B898B8B899C8901979C8B8B8B8B8915
:103060009C89009769F714C06D897E898F89988D36
:103070000E944900DC01CB019C8B8B8B8B899C8946
:10308000988B8F878F8598890197F1F7988B8F8719
:1030900081E00E946A1580E090E0A0E8BFE38B87A2
:1030A0009C87AD87BE876B857C858D859E8520E05E
:1030B00030E04AEF54E40E941F02DC01CB018F8311
:1030C0009887A987BA876F81788589859A8520E056
:1030D00030E040E85FE30E94790388232CF481E02C
:1030E00090E09E838D833FC06F81788589859A8526
:1030F00020E03FEF4FE757E40E94190318164CF504
:103100006B857C858D859E8520E030E040E251E432
:103110000E941F02DC01CB01BC01CD010E944900CD
:10312000DC01CB019E838D830FC088EC90E09C83F3
:103130008B838B819C810197F1F79C838B838D819D
:103140009E8101979E838D838D819E81009769F773
:1031500014C06F81788589859A850E944900DC01B9
:10316000CB019E838D838D819E819A838983898102
:103170009A810197F1F79A838983E8960FB6F894BC
:10318000DEBF0FBECDBFCF91DF910895DF93CF9308
:10319000CDB7DEB72E970FB6F894DEBF0FBECDBF0A
:1031A00081E00E946A1580E090E0A0E0B0E48B87A7
:1031B0009C87AD87BE876B857C858D859E8520E04D
:1031C00030E04AEF54E40E941F02DC01CB018F8300
:1031D0009887A987BA876F81788589859A8520E045
:1031E00030E040E85FE30E94790388232CF481E01B
:1031F00090E09E838D833FC06F81788589859A8515
:1032000020E03FEF4FE757E40E94190318164CF5F2
:103210006B857C858D859E8520E030E040E251E421
:103220000E941F02DC01CB01BC01CD010E944900BC
:10323000DC01CB019E838D830FC088EC90E09C83E2
:103240008B838B819C810197F1F79C838B838D818C
:103250009E8101979E838D838D819E81009769F762
:1032600014C06F81788589859A850E944900DC01A8
:10327000CB019E838D838D819E819A8389838981F1
:103280009A810197F1F79A8389832E960FB6F89465
:10329000DEBF0FBECDBFCF91DF910895DF93CF93F7
:1032A000CDB7DEB72C970FB6F894DEBF0FBECDBFFB
:1032B00069877A878B879C8781E090E0A0E0B0E007
:1032C0008D839E83AF83B88719821A821B821C82EA
:1032D00089859A85AB85BC850097A105B105B1F4B8
:1032E00080E30E9408167AC08D819E81AF81B885E7
:1032F0002AE030E040E050E0BC01CD010E947E1D9C
:10330000DC01CB018D839E83AF83B88789859A8545
:10331000AB85BC852D813E814F815885BC01CD0197
:103320000E949D1DDA01C9010097A105B105E1F6D2
:103330008D819E81AF81B8852AE030E040E050E089
:10334000BC01CD010E949D1DDA01C9018D839E83C0
:10335000AF83B8873AC089859A85AB85BC852D81B6
:103360003E814F815885BC01CD010E949D1DDA012F
:10337000C90189839A83AB83BC838981805D0E9464
:10338000081689859A85AB85BC852D813E814F8144
:103390005885BC01CD010E949D1DDC01CB018987B0
:1033A0009A87AB87BC878D819E81AF81B8852AE0E3
:1033B00030E040E050E0BC01CD010E949D1DDA01EB
:1033C000C9018D839E83AF83B8878D819E81AF8134
:1033D000B8850097A105B10509F0BDCF2C960FB6B1
:1033E000F894DEBF0FBECDBFCF91DF910895DF937C
:1033F000CF9300D000D000D0CDB7DEB769837A83F9
:103400008B839C834D832E838D816E810E94191A3C
:1034100089819A81AB81BC81BC01CD010E944E198A
:1034200026960FB6F894DEBF0FBECDBFCF91DF91C9
:103430000895DF93CF9300D000D0CDB7DEB7898356
:103440006A838A8181508A838981282F30E03C8376
:103450002B838B819C818130910531F02B813C81C4
:103460002230310531F009C08A8180580E946A15E6
:1034700004C08A8180540E946A150F900F900F90AB
:103480000F90CF91DF910895DF93CF9300D00F92EB
:10349000CDB7DEB789836A834B838A816B810E94B3
:1034A000191A89810E9408160F900F900F90CF91E2
:1034B000DF910895DF93CF9300D000D0CDB7DEB772
:1034C0009A8389836B834C838B816C810E94191A48
:1034D00089819A810E94A6160F900F900F900F90ED
:1034E000CF91DF910895DF93CF93CDB7DEB780E022
:1034F00063E041E00E94A3050E94E009CF91DF91C3
:1035000008950F931F93DF93CF93CDB7DEB7C954C0
:10351000D0400FB6F894DEBF0FBECDBF80E060EFA5
:103520000E945E08FE01E75BFF4F1082FE01E85B30
:10353000FF4F1082FE01E95BFF4F1082A2C080E0C6
:1035400064E041E00E94A30680E065E040E00E9464
:10355000A30680E066E040E00E94A30680E067E00A
:1035600041E00E94A306FE01ED5BFF4F80E090E08A
:10357000A0EAB1E480839183A283B3838E01015CCE
:103580001F4FFE01ED5BFF4F60817181828193814E
:1035900020E030E04AEF54E40E941F02DC01CB013E
:1035A000F80180839183A283B383FE01FF9660813B
:1035B00071818281938120E030E040E85FE30E94E6
:1035C000790388232CF481E090E09EAF8DAF46C054
:1035D000FE01FF96608171818281938120E03FEF3F
:1035E0004FE757E40E941903181664F5FE01ED5BDE
:1035F000FF4F608171818281938120E030E040E261
:1036000051E40E941F02DC01CB01BC01CD010E94EC
:103610004900DC01CB019EAF8DAF0FC088EC90E07C
:103620009CAF8BAF8BAD9CAD0197F1F79CAF8BAF8F
:103630008DAD9EAD01979EAF8DAF8DAD9EAD0097C8
:1036400069F716C0FE01FF966081718182819381C6
:103650000E944900DC01CB019EAF8DAF8DAD9EADC8
:103660009AAF89AF89AD9AAD0197F1F79AAF89AF5B
:10367000DE01A85BBF4FFE01E85BFF4F80818F5FDB
:103680008C93FE01E85BFF4F8081882309F457CFBC
:103690008FED90E062E070E041E050E00E945A1A45
:1036A00080E090E0A8ECB2E48DAB9EABAFABB8AFDE
:1036B0006DA97EA98FA998AD20E030E04AEF54E4CF
:1036C0000E941F02DC01CB0189AB9AABABABBCAB58
:1036D00069A97AA98BA99CA920E030E040E85FE3C2
:1036E0000E94790388232CF481E090E098AB8FA7A7
:1036F0003FC069A97AA98BA99CA920E03FEF4FE7B9
:1037000057E40E94190318164CF56DA97EA98FA9DC
:1037100098AD20E030E040E251E40E941F02DC015D
:10372000CB01BC01CD010E944900DC01CB0198AB6B
:103730008FA70FC088EC90E09EA78DA78DA59EA5B2
:103740000197F1F79EA78DA78FA598A9019798AB30
:103750008FA78FA598A9009769F7A4C069A97AA92E
:103760008BA99CA90E944900DC01CB0198AB8FA7D3
:103770008FA598A99CA78BA78BA59CA50197F1F76E
:103780009CA78BA78FC080E064E041E00E94A30665
:1037900080E065E041E00E94A30680E066E040E052
:1037A0000E94A30680E067E040E00E94A30680E05C
:1037B00090E0A0EAB1E48FA398A7A9A7BAA76FA148
:1037C00078A589A59AA520E030E04AEF54E40E944C
:1037D0001F02DC01CB018BA39CA3ADA3BEA36BA1F5
:1037E0007CA18DA19EA120E030E040E85FE30E9433
:1037F000790388232CF481E090E09AA389A33FC049
:103800006BA17CA18DA19EA120E03FEF4FE757E483
:103810000E94190318164CF56FA178A589A59AA5E1
:1038200020E030E040E251E40E941F02DC01CB01C5
:10383000BC01CD010E944900DC01CB019AA389A300
:103840000FC088EC90E098A38F8F8F8D98A101977F
:10385000F1F798A38F8F89A19AA101979AA389A3C1
:1038600089A19AA1009769F714C06BA17CA18DA1D1
:103870009EA10E944900DC01CB019AA389A389A1E2
:103880009AA19E8F8D8F8D8D9E8D0197F1F79E8FC2
:103890008D8FDE01A75BBF4FFE01E75BFF4F80818D
:1038A0008F5F8C93FE01E75BFF4F8081882309F4D3
:1038B0006ACF8FEE90E062E070E041E050E00E945D
:1038C0005A1A80E090E0AAEFB3E4898F9A8FAB8F09
:1038D000BC8F698D7A8D8B8D9C8D20E030E04AEF16
:1038E00054E40E941F02DC01CB018D8B9E8BAF8BB9
:1038F000B88F6D897E898F89988D20E030E040E80F
:103900005FE30E94790388232CF481E090E09C8B94
:103910008B8B3FC06D897E898F89988D20E03FEF2A
:103920004FE757E40E94190318164CF5698D7A8DFC
:103930008B8D9C8D20E030E040E251E40E941F021C
:10394000DC01CB01BC01CD010E944900DC01CB01AF
:103950009C8B8B8B0FC088EC90E09A8B898B89892C
:103960009A890197F1F79A8B898B8B899C890197AA
:103970009C8B8B8B8B899C89009769F7A4C06D8980
:103980007E898F89988D0E944900DC01CB019C8B38
:103990008B8B8B899C89988B8F878F8598890197D2
:1039A000F1F7988B8F878FC080E064E041E00E9440
:1039B000A30680E065E040E00E94A30680E066E0A8
:1039C00040E00E94A30680E067E041E00E94A30679
:1039D00080E090E0A0EAB1E48B879C87AD87BE874A
:1039E0006B857C858D859E8520E030E04AEF54E430
:1039F0000E941F02DC01CB018F839887A987BA87B9
:103A00006F81788589859A8520E030E040E85FE322
:103A10000E94790388232CF481E090E09E838D83BB
:103A20003FC06F81788589859A8520E03FEF4FE719
:103A300057E40E94190318164CF56B857C858D851B
:103A40009E8520E030E040E251E40E941F02DC014C
:103A5000CB01BC01CD010E944900DC01CB019E835A
:103A60008D830FC088EC90E09C838B838B819C813D
:103A70000197F1F79C838B838D819E8101979E83B3
:103A80008D838D819E81009769F714C06F81788541
:103A900089859A850E944900DC01CB019E838D8334
:103AA0008D819E819A83898389819A810197F1F71B
:103AB0009A838983DE01A95BBF4FFE01E95BFF4F5B
:103AC00080818F5F8C93FE01E95BFF4F80818823AB
:103AD00009F46ACF8DEF90E062E070E041E050E0E1
:103AE0000E945A1AC75BDF4F0FB6F894DEBF0FBEB5
:103AF000CDBFCF91DF911F910F910895629FD001AB
:103B0000739FF001829FE00DF11D649FE00DF11D98
:103B1000929FF00D839FF00D749FF00D659FF00D47
:103B20009927729FB00DE11DF91F639FB00DE11D34
:103B3000F91FBD01CF0111240895A1E21A2EAA1B7D
:103B4000BB1BFD010DC0AA1FBB1FEE1FFF1FA2174D
:103B5000B307E407F50720F0A21BB30BE40BF50B4A
:103B6000661F771F881F991F1A9469F760957095D3
:103B7000809590959B01AC01BD01CF0108952F92D6
:103B80003F924F925F926F927F928F929F92AF92ED
:103B9000BF92CF92DF92EF92FF920F931F93CF933A
:103BA000DF93CDB7DEB7CA1BDB0B0FB6F894DEBFD1
:103BB0000FBECDBF09942A88398848885F846E84F7
:103BC0007D848C849B84AA84B984C884DF80EE8041
:103BD000FD800C811B81AA81B981CE0FD11D0FB64A
:103BE000F894DEBF0FBECDBFED010895F894FFCF6E
:103BF00053657420757220504153532000506173F7
:103C000073776F72642073617665640043686563DF
:103C10006B207572205041535320005375636365C8
:103C20007366756C206C6F67696E0057656C636FA7
:103C30006D652E2E0058584661696C6564204C6F86
:103C400067696E585800526573746172742C5468B9
:103C5000656E0054525920414741494E2E2E2E0088
:103C6000456E746572207572205041535320004494
:103C70006F6F72206F70656E696E67202E2E004325
:103C80004C4F534520534F4F4E202E2E00446F6F04
:103C90007220436C6F736564202E2E0000000000BC
:103CA000000000000100020003000400FF070809F3
:103CB0002F0405062A0102032D26003D2B000102D8
:063CC000030405060700E5
:00000001FF
